:04000000F3EF35F0F5
:106B5C00016E01C040F012003EC001F03FC002F0D7
:106B6C001200C5CF01F01F0E0116D8A4FAD7C7A486
:106B7C001200F7D766EC36F0340AD8A402D0010E16
:106B8C001200000E1200016EACA2FED701C0ADFFC8
:106B9C009EA8FED79E9812003A0E136E410E146EEC
:106BAC00000E156E40500AEC36F041501200236E68
:106BBC006B0E176E060E186E23C019F04050C8EC01
:106BCC0037F01200236E6A0E176E070E186E23C074
:106BDC0019F04050C8EC37F0120000EE3EF0110EE8
:106BEC00EE6AE806FDE1000EF86E000103EF3AF0E4
:106BFC00000E926E030E936E93849482000E956E2B
:106C0C00000E966E95801200166E13C007F0010EE2
:106C1C00086E14C009F015C00AF0165014EC39F0C7
:106C2C0012000B6E09C003F0010E046E0A0E056E05
:106C3C00000E066E0B50E4EC36F01200216E6B0E5B
:106C4C00176E020E186E030E196E21C01AF040500A
:106C5C0007EC38F01200216E1C0E176E040E186E25
:106C6C00020E196E21C01AF0405007EC38F01200D9
:106C7C00216E1B0E176E040E186E020E196E21C0BB
:106C8C001AF0405007EC38F01200010E24EC36F0EC
:106C9C00000E3EEC36F0000E31EC36F0000EDDEC62
:106CAC0035F01200C6500F0B080AD8B404D0C650E9
:106CBC000F0B0B0AD8B4C586C7A0FED7C95012005B
:106CCC00750E176E060E186E060E196E410E1A6EA4
:106CDC00000E1B6E40508AEC37F041501200026ED1
:106CEC003F0EC716000EC66E000EC56E0250C612C1
:106CFC000150C71293829380C68A1200800E2E6EAA
:106D0C00250E2F6E000E306E000E316E4DEC37F0EE
:106D1C00820E356EDE0EE82EFED7352EFCD7120015
:106D2C0001500302F3CF05F0F4CF06F0015004023A
:106D3C00F350062602500302F350062605C001F05C
:106D4C0006C002F01200040E046E000E056E03D095
:106D5C000650C9EC35F002C0F6FF03C0F7FF024A3B
:106D6C00032A0800F5CF06F00650D8B41200F0D76D
:106D7C00026E02C0C9FFC6BE1200C6500F0B080A35
:106D8C00D8B40CD0C6500F0B0B0AD8B407D0C68899
:106D9C009EA6FED7C7B41200C7501200C6500F0BE8
:106DAC00080AD8B405D0C6500F0B0B0AD8A4120091
:106DBC00C7B0FED7B7EC35F0C5501200076EB7EC74
:106DCC0035F0C580C5B0FED7B7EC35F007500724B9
:106DDC00BEEC36F0B7EC35F00350BEEC36F0000EDE
:106DEC00086E0ED0B7EC35F00850010DF3500524A9
:106DFC00D96EF4500620DA6EDF50BEEC36F0082A5D
:106E0C000450085CD8A0EED7B7EC35F0C584C5B4F7
:106E1C00FED7010E1200000E126E8E0E116E0CAE0D
:106E2C0011D00C1E0B1E0A1E096C000E0A220B221E
:106E3C000C22010E126E06D0D8900C320B320A3294
:106E4C000932112A000E09140D6E000E0A140E6E72
:106E5C00000E0B140F6EFF0E0C14106E0D500E1056
:106E6C000F101010D8A4E8D709C001F00AC002F026
:106E7C000BC003F011C004F012C005F04AEC38F05E
:106E8C0001C009F002C00AF003C00BF01200949C80
:106E9C00948E2EC009F02FC00AF030C00BF031C018
:106EAC000CF011EC37F009C016F00AC017F00BC04B
:106EBC0018F0240E136EF40E146E470E156EA1EC22
:106ECC0038F013C022F014C023F015C024F0000ECB
:106EDC00256E800E266EBF0E276E90EC3AF022C007
:106EEC0032F023C033F024C034F032C001F033C090
:106EFC0002F034C003F089EC39F00150AF6E200E73
:106F0C00AC6E900EAB6E1200206E17C013F0220EFA
:106F1C00146E000E156E20500AEC36F01F6E1F50CA
:106F2C00D8B412001950000818241C6E010E1C262F
:106F3C0019C01DF0010E1E6E1D2A02D0D8901E36EF
:106F4C001D2EFCD7FF0E1E261C2A02D0D8901E36F2
:106F5C001C2EFCD71E50216E2150221619500008F1
:106F6C0018241C6E010E1C261C281D6E02D0D890F5
:106F7C0022321D2EFCD71AC0D9FF1BC0DAFF22C04B
:106F8C00DFFF1200216E17C013F0220E146E000EDC
:106F9C00156E21500AEC36F01950D8A412D018C036
:106FAC001AF0010E1B6E1A2A02D0D8901B361A2E1C
:106FBC00FCD71B50FF0A22141C6E1C501F6E206A3B
:106FCC0016D018C01AF0010E1B6E000E1C6E1A2A79
:106FDC0003D0D8901B361C361A2EFBD722501D6EB0
:106FEC001E6A1B501D101F6E1C501E10206E1FC0E1
:106FFC0022F017C009F022C00AF0215017EC36F02D
:10700C0012001E6E17C013F0200E146E000E156EBB
:10701C001E500AEC36F00009D8B4120019500008C2
:10702C0018241B6E010E1B2619C01CF0010E1D6EC0
:10703C001C2A02D0D8901D361C2EFCD7FF0E1D2604
:10704C001B2A02D0D8901D361B2EFCD71D501F6E4C
:10705C001950000818241B6E010E1B261B281C6ED1
:10706C0002D0D8901A361C2EFCD71F501A161F505F
:10707C00FF0A20161A50201217C009F020C00AF07F
:10708C001E5017EC36F012000450D8B405D0015045
:10709C0002100310D8A40CD0000E016E000E026E6C
:1070AC00000E036E1200042AD89003320232013211
:1070BC00000E0114066E000E0214076EFE0E031471
:1070CC00086E065007100810D8B40CD0ECD7042A60
:1070DC00010E0126000E0222000E0322D89003326C
:1070EC0002320132000E0114066E000E0214076EFD
:1070FC00FF0E0314086E065007100810D8B406D003
:10710C00E6D70406D89001360236033602BE03D009
:10711C00020E0460F6D704A0029ED89004320450EC
:10712C0003120550D8A4038E01C001F002C002F076
:10713C0003C003F0120015C019F01A6A1B6A14344C
:10714C00193601E31A801950206E2050D8A407D0AC
:10715C00000E136E000E146E000E156E120018C089
:10716C0019F01A6A1B6A1734193601E31A80195080
:10717C00216E2150D8A407D0000E136E000E146E91
:10718C00000E156E1200000E1D6E000E1E6E000E0F
:10719C001F6E2150890F205E15C021F01850211A46
:1071AC00800E2116148EFF0E1316FF0E1416000EF1
:1071BC001516178EFF0E1616FF0E1716000E181644
:1071CC00180E1C6ED8901D361E361F361650135CCA
:1071DC001750145818501558D8A007D01650135ED5
:1071EC001750145A1850155A1D80D890133614364F
:1071FC0015361C2EE7D71DC001F01EC002F01FC0B3
:10720C0003F020C004F021C005F04AEC38F001C0B6
:10721C0013F002C014F003C015F01200116E000E32
:10722C00126EB7EC35F0C580C5B0FED7B7EC35F0B3
:10723C0011501124BEEC36F0B7EC35F00750BEEC13
:10724C0036F0B7EC35F0C582C5B2FED7B7EC35F0E9
:10725C00D8801134BEEC36F0000E126E3BD0B7EC79
:10726C0035F01250016E026A01BE0206000E046E69
:10727C00010E036E96EC36F001500924D96E0250C3
:10728C000A20DA6E58EC36F0DF6E12C00BF00C6A86
:10729C000BBE0C06FF0E0D6EFF0E0E6E08500F6E21
:1072AC00106A0D500F260E5010220B500F180BE1C8
:1072BC000C501018D8A407D0B7EC35F0C58AC58887
:1072CC00C5A807D0FDD7B7EC35F0C59AC588C5B8A9
:1072DC00FED7122A08500B6E0C6A12C00DF00E6A03
:1072EC000DBE0E060B500D5C0E50800A0F6E0C502E
:1072FC00800A0F58D8A0B3D7B7EC35F0C584C5B405
:10730C00FED71250120003C005F0066A076A023459
:10731C00053601E3068005500F6E0F50D8A409D036
:10732C00000E016E000E026E000E036E000E046E57
:10733C001200170E056E01C006F002C007F003C064
:10734C0008F00528096E04D0D890083207320632AE
:10735C00092EFAD706500A6E028EFF0E0116FF0E8A
:10736C000216000E031601500B6E02500C6E0350E9
:10737C000D6E0E6A8E0E0F5E0FAE16D00F50800A79
:10738C008F0FD8B009D0000E016E000E026E000EE9
:10739C00036E000E046E1200D8900E320D320C32B9
:1073AC000B320F3EF9D715D0170E0F640FD0000E0D
:1073BC00016E000E026E000E036E000E046E1200C3
:1073CC00D8900B360C360D360E360F060F50D8A44F
:1073DC00F7D70A50D8B408D00E1E0D1E0C1E0B6C1D
:1073EC00000E0C220D220E220BC001F00CC002F07C
:1073FC000DC003F00EC004F01200000E3A6E010E28
:10740C003D6E720ED36E8B84FEEC35F084EC36F050
:10741C00800E016E080E75EC36F00E0EC86E680EFE
:10742C00AEEC35F0E00E026E7F0E036EA9EC36F07A
:10743C004BEC36F0060E376E130E366EAE0EE82E93
:10744C00FED7362EFCD7372EFAD7C0EC35F0000914
:10745C00D8B406D0EC0E026E7F0E036EA9EC36F09B
:10746C00BE0E026E7F0E036EA9EC36F0060E376E62
:10747C00130E366EAE0EE82EFED7362EFCD7372EF8
:10748C00FAD73D50D8A421D0810E026E7F0E036E28
:10749C00A9EC36F0CF0E026E7F0E036EA9EC36F01F
:1074AC00010EE8EC35F0D2EC35F03B6E450E026E79
:1074BC007F0E036EA9EC36F0010E3C6EB2EC35F08B
:1074CC0001C038F002C039F006D0AC0E026E7F0E4F
:1074DC00036EA9EC36F0F70E026E7F0E036EA9EC6C
:1074EC0036F0060E376E130E366EAE0EE82EFED745
:1074FC00362EFCD7372EFAD78B84060E376E130E2A
:10750C00366EAE0EE82EFED7362EFCD7372EFAD7B7
:10751C008B94E1D724C028F0296A2A6A23342836B0
:10752C0001E3298028502D6E27C028F0296A2A6A89
:10753C002634283601E3298028502C6E2D50D8B4DF
:10754C000BD02C502D5CD8B00ED02D5000082C2414
:10755C00286E180E286407D025C022F026C023F010
:10756C0027C024F012002C50D8B40BD02D502C5C1A
:10757C00D8B00ED02C5000082D24286E180E28647C
:10758C0007D022C022F023C023F024C024F0120024
:10759C00060E2B6E24BE2B8E27BE2B8C238EFF0E3D
:1075AC002216FF0E2316000E2416268EFF0E25160D
:1075BC00FF0E2616000E27162C502D5CD8B01BD0B3
:1075CC00D8902536263627362C062D502C18D8B4B4
:1075DC000DD02B062BC028F0070E2816D8B406D0D9
:1075EC00EFD7D8902432233222322D2A2C502D184A
:1075FC00D8B41FD0F6D72D502C5CD8B01AD0D89058
:10760C002236233624362D062D502C18D8B40DD006
:10761C002B062BC028F0070E2816D8B406D0EFD7AF
:10762C00D8902732263225322C2A2C502D18D8A44B
:10763C00F7D72BAE0CD0FF0E221AFF0E231AFF0E1B
:10764C00241A010E2226000E2322000E24222BAC1B
:10765C000CD0FF0E251AFF0E261AFF0E271A010E4C
:10766C002526000E2622000E2722000E2B6E2250FD
:10767C002526235026222450272227AE0ED0FF0E7B
:10768C00251AFF0E261AFF0E271A010E2526000EAC
:10769C002622000E2722010E2B6E25C001F026C0DB
:1076AC0002F027C003F02DC004F02BC005F04AEC0B
:1076BC0038F001C022F002C023F003C024F0120005
:1076CC000001B202FFFF0190040923A135016A02F7
:1076DC0006000160080000000000000000006004CB
:1076EC004000000001620200000060040040000045
:1076FC00FB00003E000B00360001000200030000FE
:10770C0000650054FFEF0000FA80000B12820001AC
:10771C00000200000000000000000000000000005B
:10772C0000280000FFFF4581FFFFFA7200000000F7
:10773C00000003E80000000100017FFFFFFE800154
:10774C00001B000000000000000000000000000012
:10775C00003E03304000000002CAE3093E800000F6
:10776C00200000000000000040000000600000004D
:10777C0041FF000000000B2A00001655000021827A
:10778C00FD872650FD800000001F000000058000D2
:10779C0000000000000100000002000000030000D7
:1077AC00400000000000046F0002653200005EC063
:1077BC00400000000000000000000000000000007D
:1077CC00FB8C6F5DFD5D08D9007C733B006C12CCAB
:1077DC003200139D3200D0D632000800400001F474
:1077EC00FFE68079020000000000D0D600002710D0
:1077FC00FB00000040000000000000000000000042
:10780C000000000100000000000001000100000069
:10781C000000FA36FFBC308E0005FBF0FFD95BC8C8
:10782C00FFD09ABE000010A9FFF41EB200CEBBF729
:10783C000000000100000004000200020200000C25
:10784C00FFC280000001800000CF800040000000DB
:10785C000000000100000000000006000000001401
:10786C00000000000000000000000000000000000C
:10787C0000000000000000000000000000000000FC
:10788C0000000000000000000000000000000000EC
:10789C0000000000033F68B6793528BCC67ED16C69
:1078AC0080000000400000000000B26A00000000F0
:1078BC00000000000000000000003FF0000000305D
:1078CC0000000000000000000000000000000000AC
:1078DC00000000000000000000000000000000009C
:1078EC000000254D002F706D000005AE000C02D07D
:1078FC000000000000650054FFEF000000000000D5
:10790C00000001000044000000000C000000010019
:10791C00000000000065000000540000FFEF0000B4
:10792C00000000000000000000000000000000004B
:10793C0040000000000000000000000000000000FB
:10794C0040000000000000000000000000000000EB
:10795C000000000100000002000000000000000018
:10796C00000000000000000000000000000000000B
:10797C0000000000000000000000000000000000FB
:10798C00001B0000000000000000000000000000D0
:10799C0000000000000000000000000000000000DB
:1079AC00000000000000000000000000400000008B
:1079BC00001B0000000000000000000000000000A0
:1079CC0000000000000000000000000000000000AB
:1079DC00000000000000000000000000000000009B
:1079EC00000000000000000000000000000000008B
:1079FC00D8DCBAA2F1DEB2B8B4A88191F74A907F74
:107A0C00916AF3F9DBA8F9B0BAA080F2CE81F3C287
:107A1C00F1C1F2C3F3CCA2B280F1C6D880BAA7DF11
:107A2C00DFDFF2A7C3CBC5B6F087A2942448703C25
:107A3C0095406834589B78A2F183922D557DD8B12E
:107A4C00B4B8A1D09180F270F370F27C80A8F101EF
:107A5C00B09887D943D886C988BAA1F20EB8978056
:107A6C00F1A9DFDFDFAADFDFDFF2AAC5CDC7A90CE2
:107A7C00C92C97979797F1A989264666B0B4BA8016
:107A8C00ACDEF2CAF1B28C02A9B69800890E161EB1
:107A9C00B8A9B4992C547CB08AA896365676F1B90C
:107AAC00AFB4B083C0B8A89711B18F98B9AFF02418
:107ABC000844106418F1A329557DAF83B593AFF03A
:107ACC00002850F1A3869F61A6DADEDFD9FAA386DF
:107ADC0096DB31A6D9F8DFBAA68FC2C5C7B28CC166
:107AEC00B8A2DFDFDFA3DFDFDFD8D8F1B8A8B2861A
:107AFC00B4980D355DB8AA98B0872D353DB2B6BA9D
:107B0C00AF8C96198F9FA70E161EB49AB8AA872C05
:107B1C00547CB9A3DEDFDFA3B180F2C4CDC9F1B8C8
:107B2C00A9B499830D355D89B9A32D557DB593A362
:107B3C000E161EA92C547CB8B4B0F19783A81184EE
:107B4C00A50998A383F0DA240844106418D8F1A589
:107B5C0029557DA58595021A2E3A565A4048F9F3B7
:107B6C00A3D9F8F098832408441064189782A8F1DC
:107B7C0011F098A2240844106418DAF3DED883A517
:107B8C009401D9A302F1A2C3C5C7D8F18492A24D26
:107B9C00DA2AD84869D92AD86855DA32D85071D936
:107BAC0032D8705DDA3AD85879D93AD87893A34D4F
:107BBC00DA2AD84869D92AD86855DA32D85071D916
:107BCC0032D8705DDA3AD85879D93AD878A88A9AE6
:107BDC00F02850789EF38818F19F1D98A8D908D8E2
:107BEC00C89F129EF315A8DA1210D8F1AFC8978768
:107BFC0034B5B994A421F3D922D8F22DF3D92AD8CB
:107C0C00F235F3D932D881A4606061D961D86C683F
:107C1C0069D969D8747071D971D8B1A384193D5DD3
:107C2C00A3831A3E5E931030811011B8B0AF8F94BD
:107C3C00F2DA3ED8B49AA88729DAF8D8879A35DAD6
:107C4C00F8D8879A3DDAF8D8B1B9A49885022E569F
:107C5C00A581000C14A397B08AF12DD928D84DD941
:107C6C0048D86DD968D8B1840DDA0ED8A32983DA37
:107C7C002C0ED8A3844983DA2C4C0ED8B8B0A88A21
:107C8C009AF520AADADFD8A840AAD0DADED8A86004
:107C9C00AADAD0DFD8F19786A8319B069907AB9763
:107CAC0028889BF00C201440B8B0B4A88C9CF0042D
:107CBC002851791D301438B282ABD0982C505078A2
:107CCC00789BF11AB0F08A9CA82951798B295179AB
:107CDC008A2470598B2058718A4469388B394068D2
:107CEC008A6448318B304960A588200971584468F2
:107CFC00113964493019F1AC002C547CF08CA80477
:107D0C00285078F1889726A85998AC8C022646669C
:107D1C00F0899CA8295179247059446938644831F8
:107D2C00A98809205970AB11384069A819314860ED
:107D3C008CA83C415C207C00F187981986A86E7653
:107D4C007EA999882D557D9EB9A38A228A6E8A5662
:107D5C008A5E9FB183062646660E2E4E6E9DB8AD8A
:107D6C00002C547CF2B18CB499B9A32D557D819122
:107D7C00AC38AD3AB58391AC2DD928D84DD948D86B
:107D8C006DD968D88C9DAE29D904AED851D904AE22
:107D9C00D879D904D881F39DAD008DAE1981ADD9B8
:107DAC0001D8F2AEDA26D88E912983A7D9ADADAD24
:107DBC00ADF32AD8D8F1B0AC89913E5E76F3AC2EF7
:107DCC002EF1B18C5A9CAC2C2828289CAC3018A8CD
:107DDC00988128343C9724A728343C9C24F2B08901
:107DEC00AC912C4C6C8A9B2DD9D8D851D9D8D87938
:107DFC00D9D8D8F19E88A331DAD8D8912DD928D8E2
:107E0C004DD948D86DD968D8B18393353D8025DAE2
:107E1C00D8D88569DAD8D8B49381A328343CF3AB8D
:107E2C008BF8A391B609B4D9ABDEFAB0879CB9A391
:107E3C00DDF1A3A3A3A395F1A3A3A39DF1A3A3A3F6
:107E4C00A3F2A3B49080F2A3A3A3A3A3A3A3A3A37D
:107E5C00A3B2A3A3A3A3A3A3B087B599F1A3A3A390
:107E6C0098F1A3A3A3A397A3A3A3A3F39BA3A3DC1E
:107E7C00B9A7F1262626D8D8FF037B034CCD6C037B
:107E8C00AB0336567600680402CB47A202180400F6
:107E9C00058BC1010C0400000000037F060CC92CEB
:107EAC00979797038903264666006C0220000240D0
:107EBC00040000000002440400000000024804001A
:107ECC00000000024C0400000000025004000000FE
:107EDC0000025404000000000258040000000002DC
:107EEC005C040000000002BC040000000001EC0473
:107EFC0000004000037F060CC92C979797040203DF
:107F0C000D355D040904872D353D00A301000000EB
:107F1C000001078601FE074105F120283038077E55
:107F2C0001300746019A074704F1283038076C04E2
:107F3C00F12830380216020001444D502072656160
:107F4C006479212057616974696E67206F6E2069AE
:107F5C006E746572727570740D0A0053656C65638E
:107F6C0074696E6720757365722062616E6B203167
:107F7C00362E2E2E005375636365737366756C6CA9
:107F8C007920696E697420444D50210D0A005265A8
:107F9C00736574696E67206465766963650D0A00A4
:107FAC00444D5020696E6974206661696C65640D7E
:107FBC000A00426567696E20444D5020696E6974F1
:107FCC000D0A00456E61626C696E6720444D502E3F
:107FDC002E2E2000747279204D50552E2E2E2000FE
:107FEC00476F74204D5055210D0A00616C69766500
:047FFC000D0A00006A
:020000040020DA
:08000000FFFFFFFFFFFFFFFF00
:020000040030CA
:0E0000000109181EFF8481FF0FC00FE00F40A2
:00000001FF
