:04000000C4EF25F034
:1049B000016E01C02CF112001CC101F01DC102F0FA
:1049C0001EC103F0120019C101F01AC102F01BC18F
:1049D00003F0120016C101F017C102F018C103F074
:1049E000120025C101F026C102F027C103F0120018
:1049F00022C101F023C102F024C103F012001FC143
:104A000001F020C102F021C103F01200C5CF01F076
:104A10001F0E0116D8A4FAD7C7A41200F7D7A2EC2C
:104A200025F0340AD8A402D0010E1200000E1200A4
:104A3000316E6B0E256E060E266E31C027F0010119
:104A40002C5164EC28F01200246E21C015F0010EE8
:104A5000166E22C017F023C018F02450FEEC2BF085
:104A600012000B6E09C003F0010E046E0A0E056EF3
:104A7000000E066E0B5087EC26F01200010E59EC6A
:104A800025F0000E75EC25F0000E67EC25F0000E09
:104A900018EC25F01200C6500F0B080AD8B404D049
:104AA000C6500F0B0B0AD8B4C586C7A0FED7C95095
:104AB00012002F6E6B0E256E020E266E030E276EF1
:104AC0002FC028F001012C5126EC29F012002F6E86
:104AD0001C0E256E040E266E020E276E2FC028F0C7
:104AE00001012C5126EC29F012002F6E1B0E256EB1
:104AF000040E266E020E276E2FC028F001012C51E5
:104B000026EC29F01200026E3F0EC716000EC66E8C
:104B1000000EC56E0250C6120150C71293829380D8
:104B2000C68A1200026EABB4AECF01F0ABA202D0C7
:104B3000AB98AB88ACA2FED702C0ADFF9EA8FED753
:104B40009E981200750E256E060E266E060E276EB6
:104B50002D0E286E010E296E01012C5126EC28F035
:104B600001012D511200000E926E070E936E948279
:104B70009494000E8D6E8DCF8CFF8CCF8BFF8BCFDE
:104B80008AFF8ACF89FF120001EE00F0470EEE6A1D
:104B9000E806FDE100EEF3F00C0EEE6AE806FDE13A
:104BA000000EF86E0001A8EF3BF001500210031058
:104BB000D8B406D0000E011A000E021A800E031A95
:104BC00001C001F002C002F003C003F012000F5058
:104BD0001102F3CF13F0F4CF14F00F501202F35080
:104BE000142610501102F350142613C00FF014C0F5
:104BF00010F01200800E0001606F250E616F000E34
:104C0000626F000E636FE9EC27F0820E5F6EDE0EBE
:104C1000E82EFED75F2EFCD7120006AE0FD004C0E0
:104C200001F005C002F006C003F0D5EC25F001C08C
:104C300004F002C005F003C006F0120004C004F046
:104C400005C005F006C006F01200000E0C6E0AAE9C
:104C500006D0096C0A1ED8B00A2A010E0C6E09C0D3
:104C600001F00AC002F0036A8E0E046E0CC005F05B
:104C7000F9EC29F001C009F002C00AF003C00BF002
:104C80001200245025102610D8B406D0000E241A85
:104C9000000E251A800E261A21C015F022C016F02B
:104CA00023C017F024C018F025C019F026C01AF050
:104CB00028EC31F015C021F016C022F017C023F007
:104CC0001200026E02C0C9FFC6BE1200C6500F0B12
:104CD000080AD8B40CD0C6500F0B0B0AD8B407D0B2
:104CE000C6889EA6FED7C7B41200C7501200C65091
:104CF0000F0B080AD8B405D0C6500F0B0B0AD8A466
:104D00001200C7B0FED706EC25F0C5501200076EA2
:104D100006EC25F0C580C5B0FED706EC25F007509F
:104D2000072461EC26F006EC25F0035061EC26F038
:104D3000000E086E0ED006EC25F00850010DF35061
:104D40000524D96EF4500620DA6EDF5061EC26F0AF
:104D5000082A0450085CD8A0EED706EC25F0C584DC
:104D6000C5B4FED7010E120001C000F102C001F16E
:104D700003C002F104C003F105C025F106C026F10D
:104D800007C027F108C022F109C023F10AC024F1AD
:104D90000BC01FF10CC020F10DC021F10EC01CF1A1
:104DA0000FC01DF110C01EF111C019F112C01AF18F
:104DB00013C01BF114C016F115C017F116C018F17D
:104DC00012008E0E116E06D0D8900C320B320A32C1
:104DD0000932112A000E09140D6E000E0A140E6E0F
:104DE000000E0B140F6EFF0E0C14106E0D500E10F3
:104DF0000F101010D8A4E8D709C001F00AC002F0C3
:104E00000BC003F011C004F0000E056EF9EC29F0A0
:104E100001C009F002C00AF003C00BF01200450EF9
:104E2000216E010E226E430E236E010E246E410E82
:104E3000256E010E266E3F0E276E010E286E3D0E6A
:104E4000296E010E2A6E3B0E2B6E010E2C6EEDECC0
:104E50002CF045C1FDF046C1FEF043C1FBF044C15A
:104E6000FCF041C1F9F042C1FAF03FC1F7F040C196
:104E7000F8F03DC1F5F03EC1F6F03BC1F3F03CC1A6
:104E8000F4F012000550061007100810D8B424D012
:104E9000010E096E06D0D89005360636073608365C
:104EA000092A08AEF8D70550015C06500258075091
:104EB000035808500458D8A008D00550015E065089
:104EC000025A0750035A0850045AD8900832073241
:104ED00006320532092EE7D701C001F002C002F008
:104EE00003C003F004C004F01200000E066E02AE10
:104EF00006D0016C021ED8B0022A010E066E04AE66
:104F000004D0036C041ED8B0042A03500410D8B493
:104F100018D0010E056E04D0D89003360436052A49
:104F200004AEFAD70350015C04500258D8A004D054
:104F30000350015E0450025AD89004320332052E09
:104F4000F1D70650D8B404D0016C021ED8B0022AA2
:104F500001C001F002C002F01200000E4F6E8E0E72
:104F60004E6E49AE11D0491E481E471E466C000EBB
:104F7000472248224922010E4F6E06D0D89049326E
:104F80004832473246324E2A000E46144A6E000E10
:104F900047144B6E000E48144C6EFF0E49144D6EB4
:104FA0004A504B104C104D10D8A4E8D746C001F021
:104FB00047C002F048C003F04EC004F04FC005F0F7
:104FC000F9EC29F001C046F002C047F003C048F0F8
:104FD0001200949C948E60C046F061C047F062C09D
:104FE00048F063C049F0ADEC27F046C053F047C02D
:104FF00054F048C055F0240E506EF40E516E470E1A
:10500000526E8BEC2BF050C015F051C016F052C010
:1050100017F0000E186E800E196EBF0E1A6E28EC77
:1050200031F015C064F016C065F017C066F064C0BA
:1050300037F065C038F066C039F067EC2DF03750B6
:10504000AF6E200EAC6E900EAB6E12002E6E25C0B1
:1050500021F0300E226E000E236E2E5024EC25F02F
:105060002D6E2D50D8B412002750000826242A6E29
:10507000010E2A2627C02BF0010E2C6E2B2A02D0FF
:10508000D8902C362B2EFCD7FF0E2C262A2A02D0A5
:10509000D8902C362A2EFCD72C502F6E2F5030163D
:1050A0002750000826242A6E010E2A262A282B6E55
:1050B00002D0D89030322B2EFCD728C0D9FF29C07F
:1050C000DAFF30C0DFFF12002F6E25C021F0300E56
:1050D000226E000E236E2F5024EC25F02750D8A40A
:1050E00012D026C028F0010E296E282A02D0D890AE
:1050F0002936282EFCD72950FF0A30142A6E2A5050
:105100002D6E2E6A16D026C028F0010E296E000ED4
:105110002A6E282A03D0D89029362A36282EFBD783
:1051200030502B6E2C6A29502B102D6E2A502C10CB
:105130002E6E2DC030F025C009F030C00AF02F507F
:1051400031EC25F01200000E096E000E0A6E000E02
:105150000B6E000E0C6E0550061007100810D8B428
:105160002AD0010E0D6E06D0D890053606360736C9
:1051700008360D2A08AEF8D7D89009360A360B360D
:105180000C360550015C0650025807500358085071
:105190000458D8A009D00550015E0650025A0750A5
:1051A000035A0850045A0980D89008320732063250
:1051B00005320D2EE1D709C001F00AC002F00BC084
:1051C00003F00CC004F01200000E0C6E0AAE06D004
:1051D000096C0A1ED8B00A2A010E0C6E08AE06D061
:1051E000076C081ED8B0082A010E0C1A000E0E6EAD
:1051F000000E0D6E09500A10D8B41CD0010E0B6EB3
:1052000004D0D89009360A360B2A0AAEFAD7D890BD
:105210000D360E360950075C0A500858D8A005D044
:105220000950075E0A50085A0D80D8900A32093298
:105230000B2EEDD70C50D8B404D00D6C0E1ED8B088
:105240000E2A0DC007F00EC008F012002C6E25C00B
:1052500021F02E0E226E000E236E2C5024EC25F031
:105260000009D8B41200275000082624296E010E28
:10527000292627C02AF0010E2B6E2A2A02D0D890A8
:105280002B362A2EFCD7FF0E2B26292A02D0D890A7
:105290002B36292EFCD72B502D6E275000082624A4
:1052A000296E010E292629282A6E02D0D890283688
:1052B0002A2EFCD72D5028162D50FF0A2E162850C6
:1052C0002E1225C009F02EC00AF02C5031EC25F02A
:1052D000120003AE16D001C007F002C008F003C0F0
:1052E00009F0071E081E091E072A000E08220922BF
:1052F000000E0724016E000E0820026E800E0920A9
:10530000036E06AE16D004C007F005C008F006C054
:1053100009F0071E081E091E072A000E082209228E
:10532000000E0724046E000E0820056E800E092072
:10533000066E000E011A000E021A800E031A000EED
:10534000041A000E051A800E061A0450015C05505E
:10535000025806500358D8B002D0D8901200D88016
:105360001200015002100310D8A40FD004C0D9FFBE
:1053700005C0DAFF000EDE6E000EDD6E000E016E5F
:10538000000E026E000E036E120003507F0B066EBD
:10539000076AD8900636073604C0D9FF05C0DAFF81
:1053A00006C0DEFF07C0DDFF02AE03D0066A062A94
:1053B00001D0066A065004C0D9FF05C0DAFFDE122C
:1053C000000EDD1204C0D9FF05C0DAFF820EDE2612
:1053D000FF0EDD2203800382038403860388038A91
:1053E000039C029E01C001F002C002F003C003F062
:1053F00012000450D8B405D0015002100310D8A4F4
:105400000CD0000E016E000E026E000E036E120034
:10541000042AD890033202320132000E0114066EC3
:10542000000E0214076EFE0E0314086E06500710DD
:105430000810D8B40CD0ECD7042A010E0126000EB7
:105440000222000E0322D890033202320132000EF3
:105450000114066E000E0214076EFF0E0314086E90
:10546000065007100810D8B406D0E6D70406D89026
:1054700001360236033602BE03D0020E0460F6D7B0
:1054800004A0029ED8900432045003120550D8A400
:10549000038E01C001F002C002F003C003F012004D
:1054A0003C503D103E10D8A407D0000E3C6E000EBC
:1054B0003D6E000E3E6E12003E507F0B416E426A02
:1054C000D8904136423641503F26425040223DAEB0
:1054D00003D0416A412A01D0416A41503F26000E63
:1054E000402240AE0CD0000E0101296F220E286F21
:1054F000000E3C6E000E3D6E000E3E6E120040BE71
:1055000016D04004D8A013D0000E0101296F220E3E
:10551000286F3EAE06D0FF0E3C6E7F0E3D6EFF0E36
:10552000ECD7FF0E3C6E7F0E3D6E7F0EE6D740340B
:105530004030426E3F30416E3E504118800B411862
:105540003E6E3FC041F0010E4116413241323D50A6
:1055500041187F0B41183D6E3CC03CF03DC03DF012
:105560003EC03EF0120035C00FF036C010F0000E05
:10557000126E030E116EE7EC25F033C037F034C025
:1055800038F00F5037261050382237C0F6FF38C099
:10559000F7FF0900F5CF39F00900F5CF3AF00A001E
:1055A000F5CF3BF03ED039C024F03AC025F03BC0E7
:1055B00026F030C021F031C022F032C023F073EC6D
:1055C0002CF021C015F022C016F023C017F0000EF9
:1055D000126E030E116E3506D8A0360635C00FF0D8
:1055E00036C010F0E7EC25F033C037F034C038F0A7
:1055F0000F5037261050382237C0F6FF38C0F7FF5B
:105600000900F5CF18F00900F5CF19F00A00F5CF21
:105610001AF028EC31F015C039F016C03AF017C076
:105620003BF035503610D8A4BED739C030F03AC060
:1056300031F03BC032F0120050C001F051C002F016
:1056400052C003F0560E046E000E056EB1EC29F048
:1056500057AE10D052AE07D0000E506E800E516E75
:10566000BF0E526E1200000E506E000E516E000EF4
:10567000526E1200575004E1150E565CD8A007D0A8
:1056800050C050F051C051F052C052F0120050C002
:1056900037F051C038F052C039F067EC2DF037C008
:1056A00046F038C047F039C048F03AC049F0ADEC98
:1056B00027F046C053F047C054F048C055F050C0E2
:1056C00001F051C002F052C003F053C004F054C0C6
:1056D00005F055C006F069EC29F0D8B015D053C0DC
:1056E00015F054C016F055C017F0000E186E800E5D
:1056F000196EBF0E1A6E28EC31F015C050F016C0AE
:1057000051F017C052F0120053C050F054C051F085
:1057100055C052F0120052C056F0576A586A5134C0
:10572000563601E3578056505D6E5D50D8A407D0C1
:10573000000E506E000E516E000E526E120055C0DB
:1057400056F0576A586A5434563601E3578056501B
:105750005E6E5E50D8A407D0000E506E000E516EE3
:10576000000E526E1200000E5A6E000E5B6E000E9E
:105770005C6E5E50890F5D5E52C05EF055505E1AE1
:10578000800E5E16518EFF0E5016FF0E5116000E43
:105790005216548EFF0E5316FF0E5416000E551659
:1057A000180E596ED8905A365B365C365350505CA2
:1057B0005450515855505258D8A007D05350505EAD
:1057C0005450515A5550525A5A80D89050365136EA
:1057D0005236592EE7D75AC001F05BC002F05CC0C8
:1057E00003F05DC004F05EC005F0F9EC29F001C0E3
:1057F00050F002C051F003C052F012001F6E000EB4
:10580000206E06EC25F0C580C5B0FED706EC25F06D
:105810001F501F2461EC26F006EC25F0155061ECBA
:1058200026F006EC25F0C582C5B2FED706EC25F0C1
:10583000D8801F3461EC26F0000E206E3BD006ECC1
:1058400025F020500F6E106A0FBE1006000E126E6B
:10585000010E116EE7EC25F00F501724D96E105091
:105860001820DA6E4BEC25F0DF6E20C019F01A6AB2
:1058700019BE1A06FF0E1B6EFF0E1C6E16501D6E13
:105880001E6A1B501D261C501E2219501D180BE1AC
:105890001A501E18D8A407D006EC25F0C58AC58872
:1058A000C5A807D0FDD706EC25F0C59AC588C5B8B0
:1058B000FED7202A1650196E1A6A20C01BF01C6AE7
:1058C0001BBE1C0619501B5C1C50800A1D6E1A5012
:1058D000800A1D58D8A0B3D706EC25F0C584C5B4FE
:1058E000FED72050120023C027F0286A296A2234EC
:1058F000273601E3288027502A6E2A50D8A407D0E3
:10590000000E216E000E226E000E236E120026C0C5
:1059100027F0286A296A2534273601E32880275092
:105920002F6E2F50D8A407D0000E216E000E226ECD
:10593000000E236E12002F507B0F2A2623C02FF05B
:1059400026502F1A800E2F16228E258EFF0E24161B
:10595000FF0E2516000E2616000E2B6E000E2C6E66
:10596000000E2D6E070E2E6E21A006D024502B2681
:1059700025502C2226502D22D8902332223221323B
:10598000D8902436253626362E2EEED7090E2E6ECA
:1059900021A006D024502B2625502C2226502D2223
:1059A000D890233222322132D8902D322C322B3211
:1059B0002E2EEED72BC001F02CC002F02DC003F02C
:1059C0002AC004F02FC005F0F9EC29F001C021F045
:1059D00002C022F003C023F012003B0E156E0E0E23
:1059E000166E2D0E176E010E186E01012C51FEEC75
:1059F0002BF001012E512DC12DF02E6A2DC02EF05D
:105A00002D6A2D12000E2E1221C0D9FF22C0DAFFFE
:105A10002DC0DEFF2EC0DDFF30512FC12DF02E6ACC
:105A20002DC02EF02D6A2D12000E2E1223C0D9FF8C
:105A300024C0DAFF2DC0DEFF2EC0DDFF325131C1A0
:105A40002DF02E6A2DC02EF02D6A2D12000E2E1272
:105A500025C0D9FF26C0DAFF2DC0DEFF2EC0DDFF36
:105A6000365135C12DF02E6A2DC02EF02D6A2D1223
:105A7000000E2E1227C0D9FF28C0DAFF2DC0DEFF8E
:105A80002EC0DDFF385137C12DF02E6A2DC02EF00B
:105A90002D6A2D12000E2E1229C0D9FF2AC0DAFF5E
:105AA0002DC0DEFF2EC0DDFF3A5139C12DF02E6A28
:105AB0002DC02EF02D6A2D12000E2E122BC0D9FFF4
:105AC0002CC0DAFF2DC0DEFF2EC0DDFF120039C072
:105AD0003BF03C6A3D6A38343B3601E33C803B5046
:105AE000456E4550D8A409D0000E376E000E386EB2
:105AF000000E396E000E3A6E1200170E3B6E37C064
:105B00003CF038C03DF039C03EF03B283F6E04D039
:105B1000D8903E323D323C323F2EFAD73C50406E58
:105B2000388EFF0E3716FF0E3816000E3916375016
:105B3000416E3850426E3950436E446A8E0E455E57
:105B400045AE16D04550800A8F0FD8B009D0000E50
:105B5000376E000E386E000E396E000E3A6E12006F
:105B6000D8904432433242324132453EF9D715D0C3
:105B7000170E45640FD0000E376E000E386E000E03
:105B8000396E000E3A6E1200D890413642364336D6
:105B9000443645064550D8A4F7D74050D8B408D06D
:105BA000441E431E421E416C000E422243224422E8
:105BB00041C037F042C038F043C039F044C03AF039
:105BC00012003EAE0CD0000E0101296F210E286F8D
:105BD000000E3C6E000E3D6E000E3E6E12003C50FC
:105BE0003D103E10D8A40CD0000E0101296F220EEA
:105BF000286F000E3C6E000E3D6E000E3E6E1200D1
:105C0000000E246E000E256E400E266E3F0E046EB2
:105C1000000E056E3CC001F03DC002F03EC003F036
:105C2000B1EC29F001C021F002C022F003C023F042
:105C300073EC2CF021C015F022C016F023C017F031
:105C4000000E186E800E196EBF0E1A6E28EC31F021
:105C500015C03CF016C03DF017C03EF03F06D8A07E
:105C600040063CC030F03DC031F03EC032F0890EFD
:105C7000336E7F0E346E000E366E080E356EB3EC4A
:105C80002AF030C03CF031C03DF032C03EF0720E20
:105C9000246E310E256E3F0E266E3FC009F040C0C7
:105CA0000AF025EC26F009C021F00AC022F00BC052
:105CB00023F073EC2CF021C015F022C016F023C0A5
:105CC00017F03CC018F03DC019F03EC01AF028ECA7
:105CD00031F015C03CF016C03DF017C03EF0120088
:105CE000033404340C6E0C50D8A409D0000E016E9D
:105CF000000E026E000E036E000E046E12000634DB
:105D000007340B6E0B50D8A409D0000E016E000EA4
:105D1000026E000E036E000E046E1200038EFF0E64
:105D20000116FF0E0216FF0E0316000E0416068E55
:105D3000FF0E0416FF0E0516FF0E0616000E0716C0
:105D4000000E076E000E086E000E096E000E0A6E41
:105D50007F0E0C5E0B50A00F0C5E200E0B6ED890C9
:105D60000736083609360A360450015C05500258D9
:105D70000650035807500458D8A009D00450015EBB
:105D80000550025A0650035A0750045A0780D8900B
:105D900001360236033604360B2EE1D70CAE16D090
:105DA0000C50800A9F0FD8B009D0000E016E000E73
:105DB000026E000E036E000E046E1200D8900A32BE
:105DC0000932083207320C3EF9D715D01F0E0C6489
:105DD0000FD0000E016E000E026E000E036E000E5C
:105DE000046E1200D8900736083609360A360C06BB
:105DF0000C50D8A4F7D707C001F008C002F009C0C2
:105E000003F00AC004F0120003C007F0086A096A30
:105E10000234073601E3088007500F6E0F50D8A4F4
:105E200009D0000E016E000E026E000E036E000E11
:105E3000046E120006C007F0086A096A05340736C6
:105E400001E3088007500E6E0E50D8A409D0000E52
:105E5000016E000E026E000E036E000E046E120044
:105E6000028EFF0E0116FF0E0216000E0316058E9F
:105E7000FF0E0416FF0E0516000E0616000E0A6E23
:105E8000000E0B6E000E0C6E000E0D6E7F0E0F5E80
:105E90000E50980F0F5E180E0E6ED8900A360B3605
:105EA0000C360D360450015C05500258065003585C
:105EB000D8A007D00450015E0550025A0650035A7C
:105EC0000A80D8900136023603360E2EE6D70FAE82
:105ED00016D00F50800A970FD8B009D0000E016E6F
:105EE000000E026E000E036E000E046E1200D890BB
:105EF0000D320C320B320A320F3EF9D715D0170E85
:105F00000F640FD0000E016E000E026E000E036EC5
:105F1000000E046E1200D8900A360B360C360D3681
:105F20000F060F50D8A4F7D70AC001F00BC002F03B
:105F30000CC003F00DC004F01200000E0001756FDC
:105F400069516A116B11D8A41DD0000E016E000EAC
:105F5000026E000E036E6CC004F06DC005F06EC0E2
:105F600006F069EC29F0D8A005D0000E0101296FD8
:105F7000210E286F000E0001696F000E6A6F000E7F
:105F80006B6F12006C516D116E11D8A407D0000E0A
:105F9000696F800E6A6F3F0E6B6F12006BAF43D05C
:105FA0006CC037F06DC038F06EC039F067EC2DF082
:105FB00037C076F038C077F039C078F03AC079F061
:105FC00076C009F077C00AF078C00BF079C00CF009
:105FD000E1EC26F000016C51091807E16D510A1837
:105FE00004E16E510B18D8B40DD0000E0101296FD9
:105FF000210E286F000E0001696F000E6A6F000EFF
:106000006B6F12007651010B756F69C001F06AC0A9
:1060100002F06BC003F0D5EC25F001C069F002C0BE
:106020006AF003C06BF069C03CF06AC03DF06BC021
:106030003EF0E1EC2DF03CC06FF03DC070F03EC092
:1060400071F06FC021F070C022F071C023F06CC0FD
:1060500024F06DC025F06EC026F073EC2CF021C04A
:1060600072F022C073F023C074F072C060F073C08D
:1060700061F074C062F0E0EC32F060C069F061C0C1
:106080006AF062C06BF000017551D8B40FD069C0DE
:1060900001F06AC002F06BC003F0D5EC25F001C03E
:1060A00069F002C06AF003C06BF0120069C069F0C9
:1060B0006AC06AF06BC06BF01200000E016E000E39
:1060C000026E000E036E7AC004F07BC005F07CC047
:1060D00006F069EC29F0D8A010D000017CAF05D003
:1060E000000E0101296F210E286F000E00017A6F4A
:1060F000000E7B6F000E7C6F12007AC083F07BC0B5
:1061000084F07CC085F07AC07DF07BC07EF07CC0DE
:106110007FF000017D1F7E1F7F1F7D2B000E7E23E1
:106120007F23C80E7D258A6F6E0E7E218B6FBE0E7B
:106130007F218C6FD8908C338B338A33000E835F32
:10614000800E845B000E855B040E866F8AC080F033
:106150008BC081F08CC082F08AC021F08BC022F00D
:106160008CC023F083C024F084C025F085C026F0C5
:1061700073EC2CF021C087F022C088F023C089F096
:1061800087C021F088C022F089C023F08AC024F0A3
:106190008BC025F08CC026F073EC2CF021C087F06A
:1061A00022C088F023C089F087C021F088C022F087
:1061B00089C023F08AC024F08BC025F08CC026F063
:1061C00073EC2CF021C087F022C088F023C089F046
:1061D0008AC021F08BC022F08CC023F0000E246E08
:1061E000C00E256E3F0E266E73EC2CF021C08AF097
:1061F00022C08BF023C08CF08AC021F08BC022F02B
:106200008CC023F087C024F088C025F089C026F018
:1062100041EC26F021C08AF022C08BF023C08CF024
:106220000001862F93D78AC021F08BC022F08CC04A
:1062300023F07AC024F07BC025F07CC026F073ECFC
:106240002CF021C07AF022C07BF023C07CF0120039
:1062500017C01BF01C6A1D6A16341B3601E31C8034
:106260001B50206E1AC01BF01C6A1D6A19341B36A5
:1062700001E31C801B501F6E2050D8B40BD01F5060
:10628000205CD8B00ED0205000081F241B6E180EC2
:106290001B6407D018C015F019C016F01AC017F00B
:1062A00012001F50D8B40BD020501F5CD8B00ED0B5
:1062B0001F50000820241B6E180E1B6407D015C049
:1062C00015F016C016F017C017F01200060E1E6E5D
:1062D00017BE1E8E1ABE1E8C168EFF0E1516FF0ED2
:1062E0001616000E1716198EFF0E1816FF0E191629
:1062F000000E1A161F50205CD8B01BD0D89018364C
:1063000019361A361F0620501F18D8B40DD01E0695
:106310001EC01BF0070E1B16D8B406D0EFD7D890BE
:10632000173216321532202A1F502018D8B41FD029
:10633000F6D720501F5CD8B01AD0D8901536163634
:106340001736200620501F18D8B40DD01E061EC0C8
:106350001BF0070E1B16D8B406D0EFD7D8901A3210
:10636000193218321F2A1F502018D8A4F7D71EAE92
:106370000CD0FF0E151AFF0E161AFF0E171A010E7B
:106380001526000E1622000E17221EAC0CD0FF0E92
:10639000181AFF0E191AFF0E1A1A010E1826000EEF
:1063A0001922000E1A22000E1E6E155018261650C5
:1063B000192217501A221AAE0ED0FF0E181AFF0E0D
:1063C000191AFF0E1A1A010E1826000E1922000EB5
:1063D0001A22010E1E6E18C001F019C002F01AC078
:1063E00003F020C004F01EC005F0F9EC29F001C054
:1063F00015F002C016F003C017F012008DC004F0B3
:106400008EC005F08FC006F00DEC26F004C09AF0A7
:1064100005C09BF006C09CF000019A519B119C1195
:10642000D8A407D0000E8D6F000E8E6F000E8F6FF8
:106430001200000E016E800E026E3F0E036E9AC0B7
:1064400004F09BC005F09CC006F069EC29F0D8B0C0
:1064500002D0010E01D0000E0001966F9651D8B403
:1064600014D0000E506E800E516E3F0E526E9AC0C8
:1064700053F09BC054F09CC055F08BEC2BF050C0F7
:106480009AF051C09BF052C09CF09AC021F09BC082
:1064900022F09CC023F09AC024F09BC025F09CC041
:1064A00026F073EC2CF021C097F022C098F023C0A6
:1064B00099F097C030F098C031F099C032F0B60E24
:1064C000336E7F0E346E000E366E040E356EB3ECF6
:1064D0002AF030C090F031C091F032C092F097C0F5
:1064E00030F098C031F099C032F0A40E336E7F0EB8
:1064F000346E000E366E050E356EB3EC2AF030C0E9
:1065000093F031C094F032C095F09AC021F09BC056
:1065100022F09CC023F090C053F091C054F092C080
:1065200055F093C050F094C051F095C052F08BECF0
:106530002BF050C024F051C025F052C026F073EC6F
:106540002CF021C09AF022C09BF023C09CF00001E7
:106550009651D8B41CD09AC001F09BC002F09CC0E8
:1065600003F0D5EC25F001C015F002C016F003C011
:1065700017F0100E186EC90E196E3F0E1A6E28EC29
:1065800031F015C09AF016C09BF017C09CF00001C6
:106590008FBF07D09AC08DF09BC08EF09CC08FF04B
:1065A00012009AC001F09BC002F09CC003F0D5EC31
:1065B00025F001C08DF002C08EF003C08FF01200F4
:1065C0000001605161116211D8A407D0000E606F04
:1065D000800E616F3F0E626F1200720E016E310EFF
:1065E000026E440E036E60C004F061C005F062C02C
:1065F00006F069EC29F0D8B00DD0000E0101296F2A
:10660000220E286FFF0E0001606F7F0E616F7F0EFC
:10661000626F120060C001F061C002F062C003F05E
:10662000490E046E3A0E056EC40E066E69EC29F032
:10663000D8B00DD0000E0101296F220E286F000E78
:106640000001606F000E616F000E626F12000001AA
:1066500062AF02D0010E01D0000E686F6851D8B44D
:106660000ED060C001F061C002F062C003F0D5EC52
:1066700025F001C060F002C061F003C062F060C0AC
:1066800021F061C022F062C023F0AA0E246EB80E81
:10669000256E3F0E266E73EC2CF021C060F022C0F8
:1066A00061F023C062F060C050F061C051F062C080
:1066B00052F01CEC2BF050C063F051C064F052C09B
:1066C00065F063C037F064C038F065C039F067EC3E
:1066D0002DF037C066F038C067F060C021F061C0AF
:1066E00022F062C023F066C009F067C00AF025EC12
:1066F00026F009C024F00AC025F00BC026F041ECBA
:1067000026F021C060F022C061F023C062F060C0BA
:1067100030F061C031F062C032F06B0E336E7F0E2C
:10672000346E000E366E090E356EB3EC2AF030C0B2
:106730003CF031C03DF032C03EF066C03FF067C073
:1067400040F050EC2AF03CC060F03DC061F03EC02B
:1067500062F000016851D8B425D060290EE17F0EA7
:1067600061190BE17F0E6219D8A407D0000E606F8B
:10677000000E616F000E626F1200000E506E800EF0
:10678000516E3F0E526E60C053F061C054F062C053
:1067900055F08BEC2BF050C060F051C061F052C04E
:1067A00062F0120060C060F061C061F062C062F02F
:1067B0001200396E6D0E39649FD0000E126E030EFA
:1067C000116E000E0A6E0A0E096E000E046E640E43
:1067D000036E39C001F0026A75EC27F001C007F0C2
:1067E00002C008F0E4EC28F0090E07240F6E000E3A
:1067F0000820106EE7EC25F0440E0F24F66E7F0E95
:106800001020F76E0900F5CF24F00900F5CF25F030
:106810000A00F5CF26F0000E0A6E640E096E39C02C
:1068200007F0086AE4EC28F0120E07240F6E000E41
:106830000820106E000E126E030E116EE7EC25F0AC
:10684000440E0F24F66E7F0E1020F76E0900F5CF70
:1068500021F00900F5CF22F00A00F5CF23F073EC08
:106860002CF021C036F022C037F023C038F0000EE3
:10687000126E030E116E000E046E0A0E036E39C006
:1068800001F0026A75EC27F001C00FF002C010F0B1
:10689000E7EC25F0440E0F24F66E7F0E1020F76E05
:1068A0000900F5CF24F00900F5CF25F00A00F5CF57
:1068B00026F036C021F037C022F038C023F073EC48
:1068C0002CF021C033F022C034F023C035F033C0A7
:1068D00021F034C022F035C023F0000E246E000EEB
:1068E000256E3F0E266E73EC2CF021C030F022C0D6
:1068F00031F023C032F012000A0E396463D0000E6A
:10690000126E030E116E000E046E0A0E036E39C075
:1069100001F0026A75EC27F001C00FF002C010F020
:10692000E7EC25F0440E0F24F66E7F0E1020F76E74
:106930000900F5CF24F00900F5CF25F00A00F5CFC6
:1069400026F0000E0A6E0A0E096E39C007F0086ABA
:10695000E4EC28F0090E07240F6E000E0820106EDC
:10696000000E126E030E116EE7EC25F0440E0F249C
:10697000F66E7F0E1020F76E0900F5CF21F00900AA
:10698000F5CF22F00A00F5CF23F073EC2CF021C0F4
:1069900036F022C037F023C038F036C021F037C0BF
:1069A00022F038C023F0000E246E000E256E3F0E3C
:1069B000266E73EC2CF021C030F022C031F023C0E1
:1069C00032F012003950030D440EF324F66E7F0EA0
:1069D000F420F76E0900F5CF21F00900F5CF22F081
:1069E0000A00F5CF23F0000E246E000E256E3F0E38
:1069F000266E73EC2CF021C030F022C031F023C0A1
:106A000032F01200000E0001776F0A0E766F000E52
:106A1000646F000E656F000E666F000E676F000EEC
:106A2000686F000E696F000E6A6F000E6B6F000ECC
:106A30006C6F000E6D6F000E6E6F000E6F6F000EAC
:106A4000706F000E716F000E726F000E736F000E8C
:106A5000746F000E756F0FEC27F0000E0001636F6E
:106A6000000E626FAED00FEC27F064C015F065C069
:106A700016F066C017F0FDC009F0FEC00AF025EC64
:106A800026F009C018F00AC019F00BC01AF028EC63
:106A900031F015C064F016C065F017C066F067C02D
:106AA00015F068C016F069C017F0FBC009F0FCC013
:106AB0000AF025EC26F009C018F00AC019F00BC046
:106AC0001AF028EC31F015C067F016C068F017C056
:106AD00069F06AC015F06BC016F06CC017F0F9C011
:106AE00009F0FAC00AF025EC26F009C018F00AC037
:106AF00019F00BC01AF028EC31F015C06AF016C07E
:106B00006BF017C06CF06DC015F06EC016F06FC062
:106B100017F0F7C009F0F8C00AF025EC26F009C01C
:106B200018F00AC019F00BC01AF028EC31F015C0AB
:106B30006DF016C06EF017C06FF070C015F071C028
:106B400016F072C017F0F5C009F0F6C00AF025EC97
:106B500026F009C018F00AC019F00BC01AF028EC92
:106B600031F015C070F016C071F017C072F073C02C
:106B700015F074C016F075C017F0F3C009F0F4C03A
:106B80000AF025EC26F009C018F00AC019F00BC075
:106B90001AF028EC31F015C073F016C074F017C06D
:106BA00075F0020E0001616F040E606FBA0EE82EE0
:106BB000FED7602FFCD7612FFAD700F00001624B9F
:106BC000632B7651625D6351800A606F7751800A52
:106BD0006059D8A048D764C050F065C051F066C075
:106BE00052F076C009F077C00AF025EC26F009C013
:106BF00053F00AC054F00BC055F08BEC2BF050C092
:106C000064F051C065F052C066F067C050F068C0D3
:106C100051F069C052F076C009F077C00AF025EC57
:106C200026F009C053F00AC054F00BC055F08BECAD
:106C30002BF050C067F051C068F052C069F06AC0D4
:106C400050F06BC051F06CC052F076C009F077C0C4
:106C50000AF025EC26F009C053F00AC054F00BC02E
:106C600055F08BEC2BF050C06AF051C06BF052C065
:106C70006CF06DC050F06EC051F06FC052F076C035
:106C800009F077C00AF025EC26F009C053F00AC0DD
:106C900054F00BC055F08BEC2BF050C06DF051C090
:106CA0006EF052C06FF070C050F071C051F072C001
:106CB00052F076C009F077C00AF025EC26F009C042
:106CC00053F00AC054F00BC055F08BEC2BF050C0C1
:106CD00070F051C071F052C072F073C050F074C0C7
:106CE00051F075C052F076C009F077C00AF025EC7B
:106CF00026F009C053F00AC054F00BC055F08BECDD
:106D00002BF050C073F051C074F052C075F064C0E5
:106D100013F165C014F166C015F167C010F168C0C9
:106D200011F169C012F16AC00DF16BC00EF16CC0B7
:106D30000FF16DC00AF16EC00BF16FC00CF170C0A5
:106D400007F171C008F172C009F173C004F174C099
:106D500005F175C006F11200366E36AE01D1366C03
:106D60003650800A120FD8A091D0000E126E030E7A
:106D7000116E000E0A6E0A0E096E000E046E640E8D
:106D8000036E3650016E026A01BE020675EC27F0F2
:106D900001C007F002C008F0E4EC28F0090E072457
:106DA0000F6E000E0820106EE7EC25F0440E0F2445
:106DB000F66E7F0E1020F76E0900F5CF24F0090063
:106DC000F5CF25F00A00F5CF26F0000E0A6E640E0E
:106DD000096E3650076E086A07BE0806E4EC28F014
:106DE000120E07240F6E000E0820106E000E126E99
:106DF000030E116EE7EC25F0440E0F24F66E7F0EA5
:106E00001020F76E0900F5CF21F00900F5CF22F030
:106E10000A00F5CF23F073EC2CF021C033F022C030
:106E200034F023C035F033C021F034C022F035C037
:106E300023F0000E126E030E116E000E046E0A0E89
:106E4000036E3650016E026A01BE020675EC27F031
:106E500001C00FF002C010F0E7EC25F0440E0F2443
:106E6000F66E7F0E1020F76E0900F5CF24F00900B2
:106E7000F5CF25F00A00F5CF26F073EC2CF021C0F9
:106E800030F022C031F023C032F012003650800AB8
:106E9000750FD8A053D0000E0A6E0A0E096E365038
:106EA000076E086A07BE0806E4EC28F0090E0724FE
:106EB0000F6E000E0820106E000E126E030E116E83
:106EC000E7EC25F0440E0F24F66E7F0E1020F76ECF
:106ED0000900F5CF21F00900F5CF22F00A00F5CF27
:106EE00023F0000E126E030E116E000E046E0A0ED9
:106EF000036E3650016E026A01BE020675EC27F081
:106F000001C00FF002C010F0E7EC25F0440E0F2492
:106F1000F66E7F0E1020F76E0900F5CF24F0090001
:106F2000F5CF25F00A00F5CF26F073EC2CF021C048
:106F300030F022C031F023C032F012003650030D81
:106F4000440EF324F66E7F0EF420F76E0900F5CFA1
:106F500030F00900F5CF31F00A00F5CF32F0120021
:106F60003650800A120FD8A091D0000E126E030E78
:106F7000116E000E0A6E0A0E096E000E046E640E8B
:106F8000036E3650016E026A01BE020675EC27F0F0
:106F900001C007F002C008F0E4EC28F0090E072455
:106FA0000F6E000E0820106EE7EC25F01D0E0F246A
:106FB000F66E7F0E1020F76E0900F5CF24F0090061
:106FC000F5CF25F00A00F5CF26F0000E0A6E640E0C
:106FD000096E3650076E086A07BE0806E4EC28F012
:106FE000120E07240F6E000E0820106E000E126E97
:106FF000030E116EE7EC25F01D0E0F24F66E7F0ECA
:107000001020F76E0900F5CF21F00900F5CF22F02E
:107010000A00F5CF23F073EC2CF021C033F022C02E
:1070200034F023C035F033C021F034C022F035C035
:1070300023F0000E126E030E116E000E046E0A0E87
:10704000036E3650016E026A01BE020675EC27F02F
:1070500001C00FF002C010F0E7EC25F01D0E0F2468
:10706000F66E7F0E1020F76E0900F5CF24F00900B0
:10707000F5CF25F00A00F5CF26F073EC2CF021C0F7
:1070800030F022C031F023C032F012003650800AB6
:10709000750FD8A053D0000E0A6E0A0E096E365036
:1070A000076E086A07BE0806E4EC28F0090E0724FC
:1070B0000F6E000E0820106E000E126E030E116E81
:1070C000E7EC25F01D0E0F24F66E7F0E1020F76EF4
:1070D0000900F5CF21F00900F5CF22F00A00F5CF25
:1070E00023F0000E126E030E116E000E046E0A0ED7
:1070F000036E3650016E026A01BE020675EC27F07F
:1071000001C00FF002C010F0E7EC25F01D0E0F24B7
:10711000F66E7F0E1020F76E0900F5CF24F00900FF
:10712000F5CF25F00A00F5CF26F073EC2CF021C046
:1071300030F022C031F023C032F012003650030D7F
:107140001D0EF324F66E7F0EF420F76E0900F5CFC6
:1071500030F00900F5CF31F00A00F5CF32F012001F
:10716000480E0001636F000E646FE4D2250E76199D
:10717000D8B404D0765192EC25F0DCD2000E000198
:10718000666F000E656F02D0668511D046C0F6FFAF
:1071900047C0F7FF464A472A0800F5CF76F07651F8
:1071A000000AD8B41200660AD8B4EED7C3D2070ECC
:1071B0006615D8B4B2D2000E686F060E676F63C052
:1071C000D9FF64C0DAFFDECF73F0DECF74F0DDCF1D
:1071D00075F0030E6327000E642375AF11D073C0E2
:1071E00001F074C002F075C003F0D5EC25F001C0C9
:1071F00073F002C074F003C075F0030E0001651354
:10720000000E6E6F000E6D6F735174117511D8B44E
:1072100086D0820E516EFF0E526E73C053F074C052
:1072200054F075C055F076C056F0100E05D0D890C9
:107230005632553254325332E82EF9D75350512436
:107240006D6F000E52206E6F6D07D8A06E076DC077
:107250000FF06EC010F0000E126E030E116EE7EC10
:1072600025F00FC06DF010C06EF06DC007F06EC05D
:1072700008F0000E0A6E0A0E096EE4EC28F007C052
:107280006DF008C06EF000016EAF03D06D07D8A09E
:107290006E076D510008ACEC36F030C06FF031C0B5
:1072A00070F032C071F06FC021F070C022F071C078
:1072B00023F073C024F074C025F075C026F073EC81
:1072C0002CF021C06FF022C070F023C071F06FC0AD
:1072D00001F070C002F071C003F0000E046E800E69
:1072E000056E3F0E066E69EC29F0D8B005D000019E
:1072F0006D07D8A06E0713D06FC001F070C002F008
:1073000071C003F0000E046E200E056E410E066E75
:1073100069EC29F0D8A003D000016D4B6E2B000161
:1073200068BF06D068511BE10D0E675DD8B017D05D
:1073300073C015F074C016F075C017F06751D9EC22
:1073400033F030C018F031C019F032C01AF028EC18
:1073500031F015C073F016C074F017C075F000015D
:107360006EBF06D06E5120E10A0E6D5DD8B01CD004
:10737000735174117511D8B456D073C037F074C0FE
:1073800038F075C039F067EC2DF0375038103910EF
:107390003A10D8A448D000016EBF45D06E5104E128
:1073A000020E6D5DD8A03FD06FC001F070C002F03A
:1073B00071C003F0700E046E890E056E400E066EED
:1073C00069EC29F0D8B003D00001F70E02D000011B
:1073D000F80E6D27FF0E6E236D51ACEC36F030C009
:1073E0006FF031C070F032C071F073C001F074C042
:1073F00002F075C003F06FC004F070C005F071C0FA
:1074000006F004EC2FF001C069F002C06AF003C07E
:107410006BF004C06CF0000E0001736F000E746F0F
:10742000000E756F33D073C037F074C038F075C07C
:1074300039F067EC2DF037C069F038C06AF039C018
:107440006BF03AC06CF073C021F074C022F075C0CC
:1074500023F069C009F06AC00AF06BC00BF06CC081
:107460000CF0E1EC26F009C024F00AC025F00BC0B6
:1074700026F041EC26F021C073F022C074F023C046
:1074800075F0000E00016E6F000E6D6F010E766FCD
:107490000A0E7619D8B418D07651040DF50EF324DF
:1074A000F66E7E0EF420F76E0900F550695D090056
:1074B000F5506A590900F5506B590900F5506C599F
:1074C000D8A002D0762BE4D7030E6515516E000EBE
:1074D0006615526E51505210D8B44AD02D0E92EC0F
:1074E00025F046D069C001F06AC002F06BC003F01D
:1074F0006CC004F000017651040DF50EF324F66E15
:107500007E0EF420F76E0900F5CF05F00900F5CFE7
:1075100006F00900F5CF07F00A00F5CF08F0A3EC5C
:1075200028F001C06FF002C070F003C071F004C019
:1075300072F06FC001F070C002F071C003F072C051
:1075400004F00A0E056E000E066E000E076E000EA9
:10755000086E42EC27F001C06FF002C070F003C06B
:1075600071F004C072F000016F51300F92EC25F001
:10757000000176077629D8B408D0B4D7300E92EC43
:1075800025F000016D07D8A06E076EBF05D06E51C3
:10759000F5E16D05D8B0F2D768BF09D0685104E1B4
:1075A000090E675DD8A003D0080E766F02D067C0C1
:1075B00076F07651675F000E76BFFF0E685B7651FE
:1075C000D8B403D02E0E92EC25F000017651ACEC2D
:1075D00036F030C060F031C061F032C062F073C08C
:1075E00024F074C025F075C026F060C021F061C0A1
:1075F00022F062C023F073EC2CF021C037F022C0DF
:1076000038F023C039F067EC2DF037C069F038C08E
:107610006AF039C06BF03AC06CF06DD069C001F00F
:107620006AC002F06BC003F06CC004F00001765138
:10763000040DF50EF324F66E7E0EF420F76E0900AD
:10764000F5CF05F00900F5CF06F00900F5CF07F0FA
:107650000A00F5CF08F0A3EC28F001C06FF002C0DB
:1076600070F003C071F004C072F06FC001F070C020
:1076700002F071C003F072C004F00A0E056E000E35
:10768000066E000E076E000E086E42EC27F001C079
:107690006FF002C070F003C071F004C072F000011E
:1076A0006F51300F92EC25F069C001F06AC002F012
:1076B0006BC003F06CC004F000017651040DF50EB0
:1076C000F324F66E7E0EF420F76E0900F5CF05F078
:1076D0000900F5CF06F00900F5CF07F00A00F5CF55
:1076E00008F042EC27F001C069F002C06AF003C064
:1076F0006BF004C06CF0000176077629D8B408D08E
:107700008DD7300E92EC25F000016707D8A06807EE
:1077100067516811D8B40ED0F4D7030E6515516EB9
:10772000000E6615526E51505210D8B403D02D0E73
:1077300092EC25F046C0F6FF47C0F7FF464A472ABD
:107740000800F5CF76F000017651D8B412000ED5BE
:107750002F0E0001BA6F650EBB6F420EBC6FC30ED9
:10776000EA6F750EEB6F3F0EEC6FEAC001F0EBC0F5
:1077700002F0ECC003F0D5EC25F001C015F002C01A
:1077800016F003C017F0000E186E800E196E3F0E33
:107790001A6E28EC31F015C0BDF016C0BEF017C04F
:1077A000BFF0D70E0001F06FA30EF16F3C0EF26F29
:1077B000000EED6F030EEE6F430EEF6F720ED36E81
:1077C000B3EC25F0FAEC25F04E0E00019D6FEB0EA8
:1077D000E82EFED79D2FFCD7800E016E080E83EC9D
:1077E00025F00E0EC86E680ED8EC24F0C50E466E5D
:1077F0007F0E476EB0EC38F03EEC25F04E0E0001E7
:107800009D6FEB0EE82EFED79D2FFCD70FEC25F0D9
:107810000009D8B407D0D40E466E7F0E476EB0EC88
:1078200038F006D0E30E466E7F0E476EB0EC38F0AF
:107830000B0E00019E6F260E9D6F5D0EE82EFED78B
:107840009D2FFCD79E2FFAD700D002EC35F08B8409
:107850000FEC27F00AC101F00BC102F00CC103F0DC
:10786000D5EC25F001C018F002C019F003C01AF0E1
:10787000F7C009F0F8C00AF025EC26F009C015F0B1
:107880000AC016F00BC017F028EC31F015C050F00C
:1078900016C051F017C052F0EDC053F0EEC054F0D6
:1078A000EFC055F08BEC2BF050C0C0F051C0C1F0D0
:1078B00052C0C2F007C101F008C102F009C103F0D3
:1078C000D5EC25F001C018F002C019F003C01AF081
:1078D000F5C009F0F6C00AF025EC26F009C015F055
:1078E0000AC016F00BC017F028EC31F015C050F0AC
:1078F00016C051F017C052F0EDC053F0EEC054F076
:10790000EFC055F08BEC2BF050C0C3F051C0C4F069
:1079100052C0C5F004C101F005C102F006C103F078
:10792000D5EC25F001C018F002C019F003C01AF020
:10793000F3C009F0F4C00AF025EC26F009C015F0F8
:107940000AC016F00BC017F028EC31F015C050F04B
:1079500016C051F017C052F0EDC053F0EEC054F015
:10796000EFC055F08BEC2BF050C0C6F051C0C7F003
:1079700052C0C8F0FDC009F0FEC00AF025EC26F0A8
:1079800009C0C9F00AC0CAF00BC0CBF0FBC009F0B7
:10799000FCC00AF025EC26F009C0CCF00AC0CDF0FE
:1079A0000BC0CEF0F9C009F0FAC00AF025EC26F0C1
:1079B00009C0CFF00AC0D0F00BC0D1F0000E00011A
:1079C0006C6F000E6D6F400E6E6FCFC069F0D0C04F
:1079D0006AF0D1C06BF09DEC2FF069C0DBF06AC09B
:1079E000DCF06BC0DDF0000E00016C6F000E6D6FFF
:1079F000400E6E6FCCC069F0CDC06AF0CEC06BF0A7
:107A00009DEC2FF069C0DEF06AC0DFF06BC0E0F0E3
:107A1000DBC018F0DCC019F0DDC01AF0DEC015F0D4
:107A2000DFC016F0E0C017F028EC31F015C0E1F02F
:107A300016C0E2F017C0E3F0E1C07AF0E2C07BF0DC
:107A4000E3C07CF05DEC30F07AC053F07BC054F0C2
:107A50007CC055F0000E246E800E256EBF0E266E83
:107A6000C9C021F0CAC022F0CBC023F073EC2CF0C7
:107A700021C050F022C051F023C052F08BEC2BF00B
:107A800050C0E4F051C0E5F052C0E6F0E4C08DF023
:107A9000E5C08EF0E6C08FF0FEEC31F08DC0E7F06F
:107AA0008EC0E8F08FC0E9F0E7C021F0E8C022F016
:107AB000E9C023F0BAC024F0BBC025F0BCC026F05A
:107AC00073EC2CF021C0A2F022C0A3F023C0A4F0DC
:107AD000000E00016C6F000E6D6F400E6E6FCFC018
:107AE00069F0D0C06AF0D1C06BF09DEC2FF069C096
:107AF000DBF06AC0DCF06BC0DDF0000E00016C6FE3
:107B0000000E6D6F400E6E6FC9C069F0CAC06AF09A
:107B1000CBC06BF09DEC2FF069C0DEF06AC0DFF0E7
:107B20006BC0E0F0DBC018F0DCC019F0DDC01AF06B
:107B3000DEC015F0DFC016F0E0C017F028EC31F021
:107B400015C0E1F016C0E2F017C0E3F0E1C07AF032
:107B5000E2C07BF0E3C07CF05DEC30F07AC053F023
:107B60007BC054F07CC055F0CCC050F0CDC051F07B
:107B7000CEC052F08BEC2BF050C0E4F051C0E5F0D9
:107B800052C0E6F0E4C08DF0E5C08EF0E6C08FF0A4
:107B9000FEEC31F08DC0E7F08EC0E8F08FC0E9F068
:107BA000E7C021F0E8C022F0E9C023F0BAC024F019
:107BB000BBC025F0BCC026F073EC2CF021C0A5F0B2
:107BC00022C0A6F023C0A7F0000E00019F6F000E98
:107BD000A06F000EA16FF0C024F0F1C025F0F2C03C
:107BE00026F0C0C021F0C1C022F0C2C023F073EC67
:107BF0002CF021C015F022C016F023C017F0F1ECD4
:107C000024F001C018F002C019F003C01AF028ECEB
:107C100031F015C0A8F016C0A9F017C0AAF0F0C046
:107C200024F0F1C025F0F2C026F0C3C021F0C4C09A
:107C300022F0C5C023F073EC2CF021C015F022C057
:107C400016F023C017F0F8EC24F001C018F002C0C1
:107C500019F003C01AF028EC31F015C0ABF016C0D3
:107C6000ACF017C0ADF0F0C024F0F1C025F0F2C0C8
:107C700026F0C6C021F0C7C022F0C8C023F073ECC4
:107C80002CF021C015F022C016F023C017F0FFEC35
:107C900024F001C018F002C019F003C01AF028EC5B
:107CA00031F015C0AEF016C0AFF017C0B0F0F0C0A4
:107CB00024F0F1C025F0F2C026F0C0C021F0C1C010
:107CC00022F0C2C023F073EC2CF021C015F022C0CA
:107CD00016F023C017F0DCEC24F001C018F002C04D
:107CE00019F003C01AF028EC31F015C0B1F016C03D
:107CF000B2F017C0B3F0F0C024F0F1C025F0F2C02C
:107D000026F0C3C021F0C4C022F0C5C023F073EC3C
:107D10002CF021C015F022C016F023C017F0E3ECC0
:107D200024F001C018F002C019F003C01AF028ECCA
:107D300031F015C0B4F016C0B5F017C0B6F0F0C001
:107D400024F0F1C025F0F2C026F0C6C021F0C7C073
:107D500022F0C8C023F073EC2CF021C015F022C033
:107D600016F023C017F0EAEC24F001C018F002C0AE
:107D700019F003C01AF028EC31F015C0B7F016C0A6
:107D8000B8F017C0B9F0A8C024F0A9C025F0AAC067
:107D900026F0EAC021F0EBC022F0ECC023F073EC37
:107DA0002CF021C015F022C016F023C017F0A5C09A
:107DB00024F0A6C025F0A7C026F0BDC021F0BEC0AB
:107DC00022F0BFC023F073EC2CF021C018F022C0C9
:107DD00019F023C01AF028EC31F015C0D2F016C00B
:107DE000D3F017C0D4F0ABC024F0ACC025F0ADC0C8
:107DF00026F0EAC021F0EBC022F0ECC023F073ECD7
:107E00002CF021C015F022C016F023C017F0A2C03C
:107E100024F0A3C025F0A4C026F0BDC021F0BEC050
:107E200022F0BFC023F073EC2CF021C018F022C068
:107E300019F023C01AF028EC31F015C0D5F016C0A7
:107E4000D6F017C0D7F0AEC0D8F0AFC0D9F0B0C0F0
:107E5000DAF0000E016E000E026E000E036E000ED0
:107E6000046ED2C005F0D3C006F0D4C007F0D5C070
:107E700008F0D6C009F0D7C00AF0D8C00BF0D9C0BE
:107E80000CF0DAC00DF0B1C00EF0B2C00FF0B3C00C
:107E900010F0B4C011F0B5C012F0B6C013F0B7C006
:107EA00014F0B8C015F0B9C016F0B4EC26F0F10E1D
:107EB000466E7F0E476ED2C048F0D3C049F0D4C0A2
:107EC0004AF0D5C04BF0D6C04CF0D7C04DF0D8C06A
:107ED0004EF0D9C04FF0DAC050F0B0EC38F0340EAC
:107EE00000019D6FF10EE82EFED79D2FFCD700D02C
:107EF0008B94ADD400010000000A00000064000073
:107F000000E803000010270000A086010040420F97
:107F1000008096980000E1F50500CA9A3B00803F7A
:107F200000204100C842007A44401C4650C3472408
:107F3000744997184BBCBE4C6B6E4E03155079AD0F
:107F400060F3497100803FCDCC3DD7233C12833A8A
:107F5000B7D138C62737388635C0D633CC2B3270E8
:107F60008930E7DB2EE53C1E42A20D00803F7231D6
:107F70003FFE753E58633D951D3CC5AE3A792139AB
:107F800094803793A73556153400000000803FF0E9
:107F9000FFBEE2A93E8376BEAE2B3E3CC3BDD213EC
:107FA0003D78D3BB3C04429F6A429001424DBB40A6
:107FB000EC473E8E1FBB3C04425A8B420444429C19
:107FC0004F4100803F496E6974204D50552E2E2E32
:107FD000200D0A004D505520656E61626C6564216C
:107FE0000D0A004D5055206661696C7572650D0A69
:0F7FF0000025662C2025662C2025660D0A000032
:020000040020DA
:08000000FFFFFFFFFFFFFFFF00
:020000040030CA
:0E0000000109181EFF8481FF0FC00FE00F40A2
:00000001FF
