:040000005BEF14F0AE
:1008000000010000000A00000064000000E803008E
:100810000010270000A086010040420F008096983B
:100820000000E1F50500CA9A3B00803F002041002E
:10083000C842007A44401C4650C347247449971864
:100840004BBCBE4C6B6E4E03155079AD60F34971D5
:1008500000803FCDCC3DD7233C12833AB7D138C678
:100860002737388635C0D633CC2B32708930E7DB5A
:100870002EE53C1E42A20D496E6974204D50552E46
:100880002E2E200D0A004D505520656E61626C655C
:1008900064210D0A004D5055206661696C757265C2
:0908A0000D0A0025660D0A000096
:1008AA00420E0001636F000E646FE4D2250E7619C2
:1008BA00D8B404D07651D1EC13F0DCD2000E00018A
:1008CA00666F000E656F02D0668511D040C0F6FFD4
:1008DA0041C0F7FF404A412A0800F5CF76F0765129
:1008EA00000AD8B41200660AD8B4EED7C3D2070EEB
:1008FA006615D8B4B2D2000E686F060E676F63C071
:10090A00D9FF64C0DAFFDECF73F0DECF74F0DDCF3B
:10091A0075F0030E6327000E642375AF11D073C000
:10092A0001F074C002F075C003F09CEC13F001C032
:10093A0073F002C074F003C075F0030E0001651372
:10094A00000E6E6F000E6D6F735174117511D8B46D
:10095A0086D0820E456EFF0E466E73C047F074C095
:10096A0048F075C049F076C04AF0100E05D0D8900C
:10097A004A32493248324732E82EF9D7475045249D
:10098A006D6F000E46206E6F6D07D8A06E076DC0A2
:10099A000FF06EC010F0000E126E030E116E89EC8D
:1009AA0013F00FC06DF010C06EF06DC007F06EC08E
:1009BA0008F0000E0A6E0A0E096EE8EC10F007C085
:1009CA006DF008C06EF000016EAF03D06D07D8A0BD
:1009DA006E076D5100084DEC07F024C06FF025C07A
:1009EA0070F026C071F06FC015F070C016F071C0BB
:1009FA0017F073C018F074C019F075C01AF0B2EC91
:100A0A000DF015C06FF016C070F017C071F06FC00E
:100A1A0001F070C002F071C003F0000E046E800E87
:100A2A00056E3F0E066E5DEC10F0D8B005D00001E1
:100A3A006D07D8A06E0713D06FC001F070C002F026
:100A4A0071C003F0000E046E200E056E410E066E94
:100A5A005DEC10F0D8A003D000016D4B6E2B0001A5
:100A6A0068BF06D068511BE10D0E675DD8B017D07C
:100A7A0073C02EF074C02FF075C030F0675186EC49
:100A8A000AF024C031F025C032F026C033F0AFECB2
:100A9A000BF02EC073F02FC074F030C075F0000157
:100AAA006EBF06D06E5120E10A0E6D5DD8B01CD023
:100ABA00735174117511D8B456D073C02BF074C029
:100ACA002CF075C02DF02CEC0EF02B502C102D10A4
:100ADA002E10D8A448D000016EBF45D06E5104E153
:100AEA00020E6D5DD8A03FD06FC001F070C002F059
:100AFA0071C003F0700E046E890E056E400E066E0C
:100B0A005DEC10F0D8B003D00001F70E02D000015E
:100B1A00F80E6D27FF0E6E236D514DEC07F024C0C1
:100B2A006FF025C070F026C071F073C001F074C078
:100B3A0002F075C003F06FC004F070C005F071C018
:100B4A0006F085EC0CF001C069F002C06AF003C03F
:100B5A006BF004C06CF0000E0001736F000E746F2E
:100B6A00000E756F33D073C02BF074C02CF075C0B3
:100B7A002DF02CEC0EF02BC069F02CC06AF02DC0C1
:100B8A006BF02EC06CF073C03AF074C03BF075C0C5
:100B9A003CF069C009F06AC00AF06BC00BF06CC087
:100BAA000CF0CCEC12F009C03DF00AC03EF00BC0CC
:100BBA003FF04DEC13F03AC073F03BC074F03CC008
:100BCA0075F0000E00016E6F000E6D6F010E766FEC
:100BDA000A0E7619D8B418D07651040D010EF324F2
:100BEA00F66E080EF420F76E0900F550695D0900EB
:100BFA00F5506A590900F5506B590900F5506C59BE
:100C0A00D8A002D0762BE4D7030E6515456E000EE8
:100C1A006615466E45504610D8B44AD02D0ED1EC12
:100C2A0013F046D069C001F06AC002F06BC003F04D
:100C3A006CC004F000017651040D010EF324F66E27
:100C4A00080EF420F76E0900F5CF05F00900F5CF7C
:100C5A0006F00900F5CF07F00A00F5CF08F02AECF4
:100C6A0011F001C06FF002C070F003C071F004C04F
:100C7A0072F06FC001F070C002F071C003F072C070
:100C8A0004F00A0E056E000E066E000E076E000EC8
:100C9A00086E99EC12F001C06FF002C070F003C048
:100CAA0071F004C072F000016F51300FD1EC13F0F3
:100CBA00000176077629D8B408D0B4D7300ED1EC23
:100CCA0013F000016D07D8A06E076EBF05D06E51F4
:100CDA00F5E16D05D8B0F2D768BF09D0685104E1D3
:100CEA00090E675DD8A003D0080E766F02D067C0E0
:100CFA0076F07651675F000E76BFFF0E685B76511D
:100D0A00D8B403D02E0ED1EC13F0000176514DEC7D
:100D1A0007F024C060F025C061F026C062F073C0FD
:100D2A0018F074C019F075C01AF060C015F061C0EF
:100D3A0016F062C017F0B2EC0DF015C02BF016C019
:100D4A002CF017C02DF02CEC0EF02BC069F02CC043
:100D5A006AF02DC06BF02EC06CF06DD069C001F046
:100D6A006AC002F06BC003F06CC004F00001765157
:100D7A00040D010EF324F66E080EF420F76E090036
:100D8A00F5CF05F00900F5CF06F00900F5CF07F019
:100D9A000A00F5CF08F02AEC11F001C06FF002C08A
:100DAA0070F003C071F004C072F06FC001F070C03F
:100DBA0002F071C003F072C004F00A0E056E000E54
:100DCA00066E000E076E000E086E99EC12F001C056
:100DDA006FF002C070F003C071F004C072F000013D
:100DEA006F51300FD1EC13F069C001F06AC002F004
:100DFA006BC003F06CC004F000017651040D010EC3
:100E0A00F324F66E080EF420F76E0900F5CF05F00C
:100E1A000900F5CF06F00900F5CF07F00A00F5CF73
:100E2A0008F099EC12F001C069F002C06AF003C040
:100E3A006BF004C06CF0000176077629D8B408D0AC
:100E4A008DD7300ED1EC13F000016707D8A06807E0
:100E5A0067516811D8B40ED0F4D7030E6515456EE4
:100E6A00000E6615466E45504610D8B403D02D0EB6
:100E7A00D1EC13F040C0F6FF41C0F7FF404A412AC7
:100E8A000800F5CF76F000017651D8B412000ED5DD
:100E9A002A6E2AAE01D12A6C2A50800A120FD8A0D3
:100EAA0091D0000E126E030E116E000E0A6E0A0E1B
:100EBA00096E000E046E640E036E2A50016E026AF9
:100ECA0001BE020661EC12F001C007F002C008F090
:100EDA00E8EC10F0090E07240F6E000E0820106EC1
:100EEA0089EC13F0500E0F24F66E080E1020F76EE0
:100EFA000900F5CF18F00900F5CF19F00A00F5CF6F
:100F0A001AF0000E0A6E640E096E2A50076E086AFD
:100F1A0007BE0806E8EC10F0120E07240F6E000E4A
:100F2A000820106E000E126E030E116E89EC13F07B
:100F3A00500E0F24F66E080E1020F76E0900F5CF3A
:100F4A0015F00900F5CF16F00A00F5CF17F0B2EC4C
:100F5A000DF015C027F016C028F017C029F027C0D9
:100F6A0015F028C016F029C017F0000E126E030EF5
:100F7A00116E000E046E0A0E036E2A50016E026A8A
:100F8A0001BE020661EC12F001C00FF002C010F0BF
:100F9A0089EC13F0500E0F24F66E080E1020F76E2F
:100FAA000900F5CF18F00900F5CF19F00A00F5CFBE
:100FBA001AF0B2EC0DF015C024F016C025F017C0D7
:100FCA0026F012002A50800A750FD8A053D0000EBE
:100FDA000A6E0A0E096E2A50076E086A07BE0806CC
:100FEA00E8EC10F0090E07240F6E000E0820106EB0
:100FFA00000E126E030E116E89EC13F0500E0F24C0
:10100A00F66E080E1020F76E0900F5CF15F00900EC
:10101A00F5CF16F00A00F5CF17F0000E126E030E88
:10102A00116E000E046E0A0E036E2A50016E026AD9
:10103A0001BE020661EC12F001C00FF002C010F00E
:10104A0089EC13F0500E0F24F66E080E1020F76E7E
:10105A000900F5CF18F00900F5CF19F00A00F5CF0D
:10106A001AF0B2EC0DF015C024F016C025F017C026
:10107A0026F012002A50030D500EF324F66E080EC5
:10108A00F420F76E0900F5CF24F00900F5CF25F01A
:10109A000A00F5CF26F012002A50800A120FD8A0B3
:1010AA0091D0000E126E030E116E000E0A6E0A0E19
:1010BA00096E000E046E640E036E2A50016E026AF7
:1010CA0001BE020661EC12F001C007F002C008F08E
:1010DA00E8EC10F0090E07240F6E000E0820106EBF
:1010EA0089EC13F0290E0F24F66E080E1020F76E05
:1010FA000900F5CF18F00900F5CF19F00A00F5CF6D
:10110A001AF0000E0A6E640E096E2A50076E086AFB
:10111A0007BE0806E8EC10F0120E07240F6E000E48
:10112A000820106E000E126E030E116E89EC13F079
:10113A00290E0F24F66E080E1020F76E0900F5CF5F
:10114A0015F00900F5CF16F00A00F5CF17F0B2EC4A
:10115A000DF015C027F016C028F017C029F027C0D7
:10116A0015F028C016F029C017F0000E126E030EF3
:10117A00116E000E046E0A0E036E2A50016E026A88
:10118A0001BE020661EC12F001C00FF002C010F0BD
:10119A0089EC13F0290E0F24F66E080E1020F76E54
:1011AA000900F5CF18F00900F5CF19F00A00F5CFBC
:1011BA001AF0B2EC0DF015C024F016C025F017C0D5
:1011CA0026F012002A50800A750FD8A053D0000EBC
:1011DA000A6E0A0E096E2A50076E086A07BE0806CA
:1011EA00E8EC10F0090E07240F6E000E0820106EAE
:1011FA00000E126E030E116E89EC13F0290E0F24E5
:10120A00F66E080E1020F76E0900F5CF15F00900EA
:10121A00F5CF16F00A00F5CF17F0000E126E030E86
:10122A00116E000E046E0A0E036E2A50016E026AD7
:10123A0001BE020661EC12F001C00FF002C010F00C
:10124A0089EC13F0290E0F24F66E080E1020F76EA3
:10125A000900F5CF18F00900F5CF19F00A00F5CF0B
:10126A001AF0B2EC0DF015C024F016C025F017C024
:10127A0026F012002A50030D290EF324F66E080EEA
:10128A00F420F76E0900F5CF24F00900F5CF25F018
:10129A000A00F5CF26F01200000E0001776F000E4B
:1012AA00906F340E916F430E926F460E786F760EE2
:1012BA00796F3F0E7A6FD70E7B6FA30E7C6F3C0E51
:1012CA007D6F720ED36E8B84C0EC13F0AEEC13F00C
:1012DA004E0E4B6EEB0EE82EFED74B2EFCD700F0CF
:1012EA00800E016E080EE1EC13F00E0EC86E680E49
:1012FA0083EC14F0770E406E080E416E55EC04F044
:10130A000DEC14F04E0E4B6EEB0EE82EFED74B2E64
:10131A00FCD700F071EC14F00009D8B407D0860E9F
:10132A00406E080E416E55EC04F006D0950E406EE4
:10133A00080E416E55EC04F08C0E216E000E226EE2
:10134A00840E236E000E246E860E256E000E266E07
:10135A008E0E276E000E286E880E296E000E2A6EDB
:10136A008A0E2B6E000E2C6EA6EC0EF07BC018F0C7
:10137A007CC019F07DC01AF08EC009F08FC00AF047
:10138A006DEC13F009C015F00AC016F00BC017F087
:10139A00B2EC0DF015C02EF016C02FF017C030F0C9
:1013AA0090C031F091C032F092C033F0AFEC0BF044
:1013BA002EC090F02FC091F030C092F08CC009F08E
:1013CA008DC00AF06DEC13F009C02EF00AC02FF0A0
:1013DA000BC030F090C001F091C002F092C003F04F
:1013EA009CEC13F001C031F002C032F003C033F0BC
:1013FA00AFEC0BF02EC07EF02FC07FF030C080F033
:10140A007EC018F07FC019F080C01AF0000E316E4D
:10141A00800E326E3F0E336E78C001F079C002F052
:10142A007AC003F09CEC13F001C02EF002C02FF03A
:10143A0003C030F0AFEC0BF02EC015F02FC016F041
:10144A0030C017F0B2EC0DF015C081F016C082F072
:10145A0017C083F081C02EF082C02FF083C030F015
:10146A0090C031F091C032F092C033F0AFEC0BF083
:10147A002EC090F02FC091F030C092F0A30E406EB3
:10148A00080E416E90C042F091C043F092C044F001
:10149A0055EC04F0000E016EB40E026E430E036E9C
:1014AA0090C004F091C005F092C006F05DEC10F017
:1014BA00D8B014D090C03AF091C03BF092C03CF042
:1014CA00000E3D6EB40E3E6E430E3F6E4DEC13F0B1
:1014DA003AC090F03BC091F03CC092F01A0E4B6EAD
:1014EA00F80EE82EFED74B2EFCD700D08B841A0EAE
:1014FA004B6EF80EE82EFED74B2EFCD700D08B94FD
:10150A001BD72D6E6D0E2D649FD0000E126E030E2A
:10151A00116E000E0A6E0A0E096E000E046E640E3B
:10152A00036E2DC001F0026A61EC12F001C007F0EF
:10153A0002C008F0E8EC10F0090E07240F6E000E46
:10154A000820106E89EC13F0500E0F24F66E080E68
:10155A001020F76E0900F5CF18F00900F5CF19F041
:10156A000A00F5CF1AF0000E0A6E640E096E2DC03D
:10157A0007F0086AE8EC10F0120E07240F6E000E4E
:10158A000820106E000E126E030E116E89EC13F015
:10159A00500E0F24F66E080E1020F76E0900F5CFD4
:1015AA0015F00900F5CF16F00A00F5CF17F0B2ECE6
:1015BA000DF015C02AF016C02BF017C02CF0000E43
:1015CA00126E030E116E000E046E0A0E036E2DC00B
:1015DA0001F0026A61EC12F001C00FF002C010F0D3
:1015EA0089EC13F0500E0F24F66E080E1020F76ED9
:1015FA000900F5CF18F00900F5CF19F00A00F5CF68
:10160A001AF02AC015F02BC016F02CC017F0B2EC55
:10161A000DF015C027F016C028F017C029F027C012
:10162A0015F028C016F029C017F0000E186E000E2B
:10163A00196E3F0E1A6EB2EC0DF015C024F016C0EA
:10164A0025F017C026F012000A0E2D6463D0000E92
:10165A00126E030E116E000E046E0A0E036E2DC07A
:10166A0001F0026A61EC12F001C00FF002C010F042
:10167A0089EC13F0500E0F24F66E080E1020F76E48
:10168A000900F5CF18F00900F5CF19F00A00F5CFD7
:10169A001AF0000E0A6E0A0E096E2DC007F0086ACB
:1016AA00E8EC10F0090E07240F6E000E0820106EE9
:1016BA00000E126E030E116E89EC13F0500E0F24F9
:1016CA00F66E080E1020F76E0900F5CF15F0090026
:1016DA00F5CF16F00A00F5CF17F0B2EC0DF015C0F1
:1016EA002AF016C02BF017C02CF02AC015F02BC018
:1016FA0016F02CC017F0000E186E000E196E3F0E71
:10170A001A6EB2EC0DF015C024F016C025F017C001
:10171A0026F012002D50030D500EF324F66E080E1B
:10172A00F420F76E0900F5CF15F00900F5CF16F091
:10173A000A00F5CF17F0000E186E000E196E3F0E54
:10174A001A6EB2EC0DF015C024F016C025F017C0C1
:10175A0026F0120030C034F0356A366A2F34343637
:10176A0001E335803450396E33C034F0356A366A55
:10177A003234343601E335803450386E3950D8B4B7
:10178A000BD03850395CD8B00ED039500008382404
:10179A00346E180E346407D031C02EF032C02FF0E8
:1017AA0033C030F012003850D8B40BD03950385CFE
:1017BA00D8B00ED0385000083924346E180E34646C
:1017CA0007D02EC02EF02FC02FF030C030F01200FC
:1017DA00060E376E30BE378E33BE378C2F8EFF0E15
:1017EA002E16FF0E2F16000E3016328EFF0E3116F1
:1017FA00FF0E3216000E33163850395CD8B01BD0A3
:10180A00D890313632363336380639503818D8B48B
:10181A000DD0370637C034F0070E3416D8B406D0C8
:10182A00EFD7D89030322F322E32392A3850391821
:10183A00D8B41FD0F6D73950385CD8B01AD0D8905F
:10184A002E362F363036390639503818D8B40DD0DE
:10185A00370637C034F0070E3416D8B406D0EFD79F
:10186A00D890333232323132382A38503918D8A423
:10187A00F7D737AE0CD0FF0E2E1AFF0E2F1AFF0E17
:10188A00301A010E2E26000E2F22000E302237ACFF
:10189A000CD0FF0E311AFF0E321AFF0E331A010E48
:1018AA003126000E3222000E3322000E376E2E50E1
:1018BA0031262F5032223050332233AE0ED0FF0E53
:1018CA00311AFF0E321AFF0E331A010E3126000E9C
:1018DA003222000E3322010E376E31C001F032C0BF
:1018EA0002F033C003F039C004F037C005F006EC4B
:1018FA0010F001C02EF002C02FF003C030F0120029
:10190A0003C007F0086A096A0234073601E308804F
:10191A0007500F6E0F50D8A409D0000E016E000EAA
:10192A00026E000E036E000E046E120006C007F06F
:10193A00086A096A0534073601E3088007500E6E03
:10194A000E50D8A409D0000E016E000E026E000ED1
:10195A00036E000E046E1200028EFF0E0116FF0EB9
:10196A000216000E0316058EFF0E0416FF0E05164C
:10197A00000E0616000E0A6E000E0B6E000E0C6E9E
:10198A00000E0D6E7F0E0F5E0E50980F0F5E180E32
:10199A000E6ED8900A360B360C360D360450015CA2
:1019AA000550025806500358D8A007D00450015ECB
:1019BA000550025A0650035A0A80D8900136023658
:1019CA0003360E2EE6D70FAE16D00F50800A970FA9
:1019DA00D8B009D0000E016E000E026E000E036E22
:1019EA00000E046E1200D8900D320C320B320A32FD
:1019FA000F3EF9D715D0170E0F640FD0000E016EE7
:101A0A00000E026E000E036E000E046E1200D890D5
:101A1A000A360B360C360D360F060F50D8A4F7D7F8
:101A2A000AC001F00BC002F00CC003F00DC004F0B4
:101A3A001200033404340C6E0C50D8A409D0000EE2
:101A4A00016E000E026E000E036E000E046E12008E
:101A5A00063407340B6E0B50D8A409D0000E016E61
:101A6A00000E026E000E036E000E046E1200038E4C
:101A7A00FF0E0116FF0E0216FF0E0316000E0416C5
:101A8A00068EFF0E0416FF0E0516FF0E0616000E32
:101A9A000716000E076E000E086E000E096E000E85
:101AAA000A6E7F0E0C5E0B50A00F0C5E200E0B6EA2
:101ABA00D8900736083609360A360450015C0550B4
:101ACA0002580650035807500458D8A009D00450A9
:101ADA00015E0550025A0650035A0750045A0780FD
:101AEA00D89001360236033604360B2EE1D70CAEF7
:101AFA0016D00C50800A9F0FD8B009D0000E016E84
:101B0A00000E026E000E036E000E046E1200D890D4
:101B1A000A320932083207320C3EF9D715D01F0EA5
:101B2A000C640FD0000E016E000E026E000E036EE2
:101B3A00000E046E1200D8900736083609360A36A7
:101B4A000C060C50D8A4F7D707C001F008C002F061
:101B5A0009C003F00AC004F0120017C01BF01C6A87
:101B6A001D6A16341B3601E31C801B501E6E1E5064
:101B7A00D8A407D0000E156E000E166E000E176E52
:101B8A0012001AC01BF01C6A1D6A19341B3601E3C5
:101B9A001C801B50236E2350D8A407D0000E156E4C
:101BAA00000E166E000E176E120023507B0F1E26B3
:101BBA0017C023F01A50231A800E2316168E198E78
:101BCA00FF0E1816FF0E1916000E1A16000E1F6EBB
:101BDA00000E206E000E216E070E226E15A006D092
:101BEA0018501F26195020221A502122D890173235
:101BFA0016321532D890183619361A36222EEED7E2
:101C0A00090E226E15A006D018501F261950202240
:101C1A001A502122D890173216321532D890213212
:101C2A0020321F32222EEED71FC001F020C002F050
:101C3A0021C003F01EC004F023C005F006EC10F02A
:101C4A0001C015F002C016F003C017F012002DC033
:101C5A002FF0306A316A2C342F3601E330802F504E
:101C6A00396E3950D8A409D0000E2B6E000E2C6E96
:101C7A00000E2D6E000E2E6E1200170E2F6E2BC048
:101C8A0030F02CC031F02DC032F02F28336E04D042
:101C9A00D890323231323032332EFAD73050346E55
:101CAA002C8EFF0E2B16FF0E2C16000E2D162B5007
:101CBA00356E2C50366E2D50376E386A8E0E395E60
:101CCA0039AE16D03950800A8F0FD8B009D0000E1D
:101CDA002B6E000E2C6E000E2D6E000E2E6E120054
:101CEA00D8903832373236323532393EF9D715D0B4
:101CFA00170E39640FD0000E2B6E000E2C6E000EDC
:101D0A002D6E000E2E6E1200D890353636363736C6
:101D1A00383639063950D8A4F7D73450D8B408D051
:101D2A00381E371E361E356C000E362237223822F0
:101D3A0035C02BF036C02CF037C02DF038C02EF04D
:101D4A0012003B0E156E0E0E166E4D0E176E000E1D
:101D5A00186E4C501EEC0FF04E504DC02DF02E6AEE
:101D6A002DC02EF02D6A2D12000E2E1221C0D9FF81
:101D7A0022C0DAFF2DC0DEFF2EC0DDFF50504FC05B
:101D8A002DF02E6A2DC02EF02D6A2D12000E2E1265
:101D9A0023C0D9FF24C0DAFF2DC0DEFF2EC0DDFF2D
:101DAA00525051C02DF02E6A2DC02EF02D6A2D12E0
:101DBA00000E2E1225C0D9FF26C0DAFF2DC0DEFF85
:101DCA002EC0DDFF565055C02DF02E6A2DC02EF0C4
:101DDA002D6A2D12000E2E1227C0D9FF28C0DAFF55
:101DEA002DC0DEFF2EC0DDFF585057C02DF02E6AE1
:101DFA002DC02EF02D6A2D12000E2E1229C0D9FFE9
:101E0A002AC0DAFF2DC0DEFF2EC0DDFF5A5059C0AE
:101E1A002DF02E6A2DC02EF02D6A2D12000E2E12D4
:101E2A002BC0D9FF2CC0DAFF2DC0DEFF2EC0DDFF8C
:101E3A0012001F6E000E206E7AEC14F0C580C5B039
:101E4A00FED77AEC14F01F501F2427EC13F07AEC1B
:101E5A0014F0155027EC13F07AEC14F0C582C5B2D1
:101E6A00FED77AEC14F0D8801F3427EC13F0000E5A
:101E7A00206E3BD07AEC14F020500F6E106A0FBE21
:101E8A001006000E126E010E116E89EC13F00F503F
:101E9A001724D96E10501820DA6EFFEC13F0DF6E9B
:101EAA0020C019F01A6A19BE1A06FF0E1B6EFF0E21
:101EBA001C6E16501D6E1E6A1B501D261C501E22BB
:101ECA0019501D180BE11A501E18D8A407D07AEC25
:101EDA0014F0C58AC588C5A807D0FDD77AEC14F0D6
:101EEA00C59AC588C5B8FED7202A1650196E1A6A2F
:101EFA0020C01BF01C6A1BBE1C0619501B5C1C5020
:101F0A00800A1D6E1A50800A1D58D8A0B3D77AECE1
:101F1A0014F0C584C5B4FED72050120015C019F0BC
:101F2A001A6A1B6A1434193601E31A801950206E92
:101F3A002050D8A407D0000E136E000E146E000EA7
:101F4A00156E120018C019F01A6A1B6A173419366E
:101F5A0001E31A801950216E2150D8A407D0000E2F
:101F6A00136E000E146E000E156E1200000E1D6E1A
:101F7A00000E1E6E000E1F6E2150890F205E15C0C6
:101F8A0021F01850211A800E2116148EFF0E1316F6
:101F9A00FF0E1416000E1516178EFF0E1616FF0EDC
:101FAA001716000E1816180E1C6ED8901D361E36FF
:101FBA001F361650135C1750145818501558D8A0CD
:101FCA0007D01650135E1750145A1850155A1D8010
:101FDA00D8901336143615361C2EE7D71DC001F0DB
:101FEA001EC002F01FC003F020C004F021C005F09B
:101FFA0006EC10F001C013F002C014F003C015F093
:10200A0012000450D8B405D0015002100310D8A40D
:10201A000CD0000E016E000E026E000E036E12004E
:10202A00042AD890033202320132000E0114066EDD
:10203A00000E0214076EFE0E0314086E06500710F7
:10204A000810D8B40CD0ECD7042A010E0126000ED1
:10205A000222000E0322D890033202320132000E0D
:10206A000114066E000E0214076EFF0E0314086EAA
:10207A00065007100810D8B406D0E6D70406D89040
:10208A0001360236033602BE03D0020E0460F6D7CA
:10209A0004A0029ED8900432045003120550D8A41A
:1020AA00038E01C001F002C002F003C003F0120067
:1020BA0003AE16D001C007F002C008F003C009F051
:1020CA00071E081E091E072A000E08220922000EF2
:1020DA000724016E000E0820026E800E0920036E8E
:1020EA0006AE16D004C007F005C008F006C009F015
:1020FA00071E081E091E072A000E08220922000EC2
:10210A000724046E000E0820056E800E0920066E54
:10211A00000E011A000E021A800E031A000E041A8B
:10212A00000E051A800E061A0450015C055002586A
:10213A0006500358D8B002D0D8901200D8801200A6
:10214A002C6E25C021F02E0E226E000E236E2C500E
:10215A004EEC14F00009D8B41200275000082624C7
:10216A00296E010E292627C02AF0010E2B6E2A2A73
:10217A0002D0D8902B362A2EFCD7FF0E2B26292ADE
:10218A0002D0D8902B36292EFCD72B502D6E2750F3
:10219A0000082624296E010E292629282A6E02D033
:1021AA00D89028362A2EFCD72D5028162D50FF0AF3
:1021BA002E1628502E1225C009F02EC00AF02C50D7
:1021CA0041EC14F01200000E0C6E0AAE06D0096C37
:1021DA000A1ED8B00A2A010E0C6E08AE06D0076C89
:1021EA00081ED8B0082A010E0C1A000E0E6E000E38
:1021FA000D6E09500A10D8B41CD0010E0B6E04D013
:10220A00D89009360A360B2A0AAEFAD7D8900D3674
:10221A000E360950075C0A500858D8A005D0095054
:10222A00075E0A50085A0D80D8900A3209320B2EDE
:10223A00EDD70C50D8B404D00D6C0E1ED8B00E2AAF
:10224A000DC007F00EC008F01200000E096E000E55
:10225A000A6E000E0B6E000E0C6E0550061007106B
:10226A000810D8B42AD0010E0D6E06D0D8900536C3
:10227A000636073608360D2A08AEF8D7D89009363A
:10228A000A360B360C360550015C065002580750C8
:10229A00035808500458D8A009D00550015E0650CA
:1022AA00025A0750035A0850045A0980D890083233
:1022BA000732063205320D2EE1D709C001F00AC0F5
:1022CA0002F00BC003F00CC004F012002F6E25C000
:1022DA0021F0300E226E000E236E2F504EEC14F0B9
:1022EA002750D8A412D026C028F0010E296E282A19
:1022FA0002D0D8902936282EFCD72950FF0A30144C
:10230A002A6E2A502D6E2E6A16D026C028F0010E8B
:10231A00296E000E2A6E282A03D0D89029362A362A
:10232A00282EFBD730502B6E2C6A29502B102D6E7D
:10233A002A502C102E6E2DC030F025C009F030C066
:10234A000AF02F5041EC14F012002E6E25C021F035
:10235A00300E226E000E236E2E504EEC14F02D6EAF
:10236A002D50D8B412002750000826242A6E010ED8
:10237A002A2627C02BF0010E2C6E2B2A02D0D890C9
:10238A002C362B2EFCD7FF0E2C262A2A02D0D890C8
:10239A002C362A2EFCD72C502F6E2F503016275051
:1023AA00000826242A6E010E2A262A282B6E02D01D
:1023BA00D89030322B2EFCD728C0D9FF29C0DAFF9B
:1023CA0030C0DFFF1200949C948E3AC009F03BC0E3
:1023DA000AF03CC00BF03DC00CF025EC12F009C02D
:1023EA0016F00AC017F00BC018F0240E136EF40E84
:1023FA00146E470E156E93EC0FF013C02EF014C036
:10240A002FF015C030F0000E316E800E326EBF0E06
:10241A00336EAFEC0BF02EC03EF02FC03FF030C051
:10242A0040F03EC02BF03FC02CF040C02DF02CEC09
:10243A000EF02B50AF6E200EAC6E900EAB6E1200EB
:10244A00000E126E8E0E116E0CAE11D00C1E0B1EEB
:10245A000A1E096C000E0A220B220C22010E126EB1
:10246A0006D0D8900C320B320A320932112A000EE9
:10247A0009140D6E000E0A140E6E000E0B140F6E68
:10248A00FF0E0C14106E0D500E100F101010D8A461
:10249A00E8D709C001F00AC002F00BC003F011C06E
:1024AA0004F012C005F006EC10F001C009F002C0F9
:1024BA000AF003C00BF01200000E066E02AE06D040
:1024CA00016C021ED8B0022A010E066E04AE04D0B8
:1024DA00036C041ED8B0042A03500410D8B418D0D0
:1024EA00010E056E04D0D89003360436052A04AED0
:1024FA00FAD70350015C04500258D8A004D0035004
:10250A00015E0450025AD89004320332052EF1D7E4
:10251A000650D8B404D0016C021ED8B0022A01C0F9
:10252A0001F002C002F01200055006100710081050
:10253A00D8B424D0010E096E06D0D89005360636D6
:10254A0007360836092A08AEF8D70550015C065046
:10255A0002580750035808500458D8A008D005500C
:10256A00015E0650025A0750035A0850045AD8907E
:10257A000832073206320532092EE7D701C001F0C8
:10258A0002C002F003C003F004C004F012008E0E71
:10259A00116E06D0D8900C320B320A320932112A47
:1025AA00000E09140D6E000E0A140E6E000E0B14A6
:1025BA000F6EFF0E0C14106E0D500E100F1010102F
:1025CA00D8A4E8D709C001F00AC002F00BC003F092
:1025DA0011C004F0000E056E06EC10F001C009F0FF
:1025EA0002C00AF003C00BF01200076E7AEC14F076
:1025FA00C580C5B0FED77AEC14F00750072427EC43
:10260A0013F07AEC14F0035027EC13F0000E086E66
:10261A000ED07AEC14F00850010DF3500524D96E4F
:10262A00F4500620DA6EDF5027EC13F0082A045023
:10263A00085CD8A0EED77AEC14F0C584C5B4FED7EE
:10264A00010E1200026E02C0C9FFC6BE1200C650B9
:10265A000F0B080AD8B40CD0C6500F0B0B0AD8B40B
:10266A0007D0C6889EA6FED7C7B41200C75012006C
:10267A00C6500F0B080AD8B405D0C6500F0B0B0A68
:10268A00D8A41200C7B0FED77AEC14F0C5501200D5
:10269A003D503E103F10D8B406D0000E3D1A000E31
:1026AA003E1A800E3F1A3AC02EF03BC02FF03CC0B3
:1026BA0030F03DC031F03EC032F03FC033F0AFECF5
:1026CA000BF02EC03AF02FC03BF030C03CF01200A5
:1026DA00000E0C6E0AAE06D0096C0A1ED8B00A2A81
:1026EA00010E0C6E09C001F00AC002F0036A8E0ED8
:1026FA00046E0CC005F006EC10F001C009F002C02F
:10270A000AF003C00BF012000F501102F3CF13F0BE
:10271A00F4CF14F00F501202F35014261050110285
:10272A00F350142613C00FF014C010F01200015019
:10273A0002100310D8B406D0000E011A000E021AB5
:10274A00800E031A01C001F002C002F003C003F0B8
:10275A001200800E3A6E250E3B6E000E3C6E000E85
:10276A003D6EE8EC11F0820E416EDE0EE82EFED7C9
:10277A00412EFCD71200000E926E070E936E9482C1
:10278A009494000E8D6E8DCF8CFF8CCF8BFF8BCFE8
:10279A008AFF8ACF89FF1200026EABB4AECF01F076
:1027AA00ABA202D0AB98AB88ACA2FED702C0ADFFF9
:1027BA009EA8FED79E981200026E3F0EC716000E04
:1027CA00C66E000EC56E0250C6120150C712938221
:1027DA009380C68A1200750E256E060E266E060EA8
:1027EA00276E4D0E286E000E296E4C50AAEC11F081
:1027FA004D501200C6500F0B080AD8B404D0C65068
:10280A000F0B0B0AD8B4C586C7A0FED7C950120051
:10281A00010E34EC14F0000E1AEC14F0000E27EC42
:10282A0014F0000E66EC14F012002F6E1B0E256ECB
:10283A00040E266E020E276E2FC028F04C50A5EC0F
:10284A0010F012002F6E1C0E256E040E266E020E5C
:10285A00276E2FC028F04C50A5EC10F012002F6EF6
:10286A006B0E256E020E266E030E276E2FC028F001
:10287A004C50A5EC10F012000B6E09C003F0010ECB
:10288A00046E0A0E056E000E066E0B50FAEC12F07C
:10289A001200246E21C015F0010E166E22C017F028
:1028AA0023C018F024501EEC0FF0120000EE4CF07A
:1028BA000F0EEE6AE806FDE1000EF86E000151EF18
:1028CA0009F0316E6B0E256E060E266E31C027F0AA
:1028DA004C506BEC11F01200F0EC13F0340AD8A44F
:1028EA0002D0010E1200000E1200C5CF01F01F0E19
:1028FA000116D8A4FAD7C7A41200F7D7016E01C0EF
:04290A004CF012007B
:020000040020DA
:08000000FFFFFFFFFFFFFFFF00
:020000040030CA
:0E0000000109181EFF8481FF0FC00FE00F40A2
:00000001FF
